{
  "contractName": "FlipContract",
  "abi": [
    {
      "anonymous": false,
      "inputs": [
        {
          "indexed": true,
          "internalType": "address",
          "name": "previousOwner",
          "type": "address"
        },
        {
          "indexed": true,
          "internalType": "address",
          "name": "newOwner",
          "type": "address"
        }
      ],
      "name": "OwnershipTransferred",
      "type": "event"
    },
    {
      "anonymous": false,
      "inputs": [
        {
          "indexed": true,
          "internalType": "address",
          "name": "user",
          "type": "address"
        },
        {
          "indexed": true,
          "internalType": "uint256",
          "name": "bet",
          "type": "uint256"
        },
        {
          "indexed": true,
          "internalType": "bool",
          "name": "win",
          "type": "bool"
        },
        {
          "indexed": false,
          "internalType": "uint8",
          "name": "side",
          "type": "uint8"
        }
      ],
      "name": "bet",
      "type": "event"
    },
    {
      "anonymous": false,
      "inputs": [
        {
          "indexed": false,
          "internalType": "address",
          "name": "owner",
          "type": "address"
        },
        {
          "indexed": false,
          "internalType": "uint256",
          "name": "funding",
          "type": "uint256"
        }
      ],
      "name": "funded",
      "type": "event"
    },
    {
      "inputs": [],
      "name": "ContractBalance",
      "outputs": [
        {
          "internalType": "uint256",
          "name": "",
          "type": "uint256"
        }
      ],
      "stateMutability": "view",
      "type": "function"
    },
    {
      "inputs": [],
      "name": "owner",
      "outputs": [
        {
          "internalType": "address",
          "name": "",
          "type": "address"
        }
      ],
      "stateMutability": "view",
      "type": "function"
    },
    {
      "inputs": [],
      "name": "renounceOwnership",
      "outputs": [],
      "stateMutability": "nonpayable",
      "type": "function"
    },
    {
      "inputs": [
        {
          "internalType": "address",
          "name": "newOwner",
          "type": "address"
        }
      ],
      "name": "transferOwnership",
      "outputs": [],
      "stateMutability": "nonpayable",
      "type": "function"
    },
    {
      "inputs": [
        {
          "internalType": "uint8",
          "name": "side",
          "type": "uint8"
        }
      ],
      "name": "flip",
      "outputs": [
        {
          "internalType": "bool",
          "name": "",
          "type": "bool"
        }
      ],
      "stateMutability": "payable",
      "type": "function"
    },
    {
      "inputs": [],
      "name": "withdrawAll",
      "outputs": [
        {
          "internalType": "uint256",
          "name": "",
          "type": "uint256"
        }
      ],
      "stateMutability": "nonpayable",
      "type": "function"
    },
    {
      "inputs": [],
      "name": "getBalance",
      "outputs": [
        {
          "internalType": "uint256",
          "name": "",
          "type": "uint256"
        }
      ],
      "stateMutability": "view",
      "type": "function"
    },
    {
      "inputs": [],
      "name": "fundContract",
      "outputs": [],
      "stateMutability": "payable",
      "type": "function"
    }
  ],
  "bytecode": "0x608060405234801561001057600080fd5b5061002d61002261003260201b60201c565b61003a60201b60201c565b6100fe565b600033905090565b60008060009054906101000a900473ffffffffffffffffffffffffffffffffffffffff169050816000806101000a81548173ffffffffffffffffffffffffffffffffffffffff021916908373ffffffffffffffffffffffffffffffffffffffff1602179055508173ffffffffffffffffffffffffffffffffffffffff168173ffffffffffffffffffffffffffffffffffffffff167f8be0079c531659141344cd1fd0a4f28419497f9722a3daafe3b4186f6b6457e060405160405180910390a35050565b610dc18061010d6000396000f3fe60806040526004361061007b5760003560e01c8063853828b61161004e578063853828b61461011d5780638da5cb5b14610148578063bd097e2114610173578063f2fde38b1461017d5761007b565b806312065fe0146100805780633b668059146100ab578063638c0637146100d6578063715018a614610106575b600080fd5b34801561008c57600080fd5b506100956101a6565b6040516100a291906107f2565b60405180910390f35b3480156100b757600080fd5b506100c06101b0565b6040516100cd91906107f2565b60405180910390f35b6100f060048036038101906100eb919061084b565b6101b6565b6040516100fd9190610893565b60405180910390f35b34801561011257600080fd5b5061011b61036a565b005b34801561012957600080fd5b506101326103f2565b60405161013f91906107f2565b60405180910390f35b34801561015457600080fd5b5061015d6104ce565b60405161016a91906108ef565b60405180910390f35b61017b6104f7565b005b34801561018957600080fd5b506101a4600480360381019061019f9190610936565b6105e9565b005b6000600154905090565b60015481565b60006101cc6002346106e190919063ffffffff16565b47101561020e576040517f08c379a0000000000000000000000000000000000000000000000000000000008152600401610205906109e6565b60405180910390fd5b60008260ff161480610223575060018260ff16145b610262576040517f08c379a000000000000000000000000000000000000000000000000000000000815260040161025990610a78565b60405180910390fd5b60008260ff166002426102759190610ac7565b14156102f057346001600082825461028d9190610b27565b925050819055503373ffffffffffffffffffffffffffffffffffffffff166108fc6002346102bb9190610b5b565b9081150290604051600060405180830381858888f193505050501580156102e6573d6000803e3d6000fd5b506001905061030e565b34600160008282546103029190610bb5565b92505081905550600090505b801515343373ffffffffffffffffffffffffffffffffffffffff167f271b3e8d94a67ce5e9cee03d78c310019308ea7075468a4eb2bac8b027b14c4d866040516103589190610c1a565b60405180910390a46001915050919050565b6103726106f7565b73ffffffffffffffffffffffffffffffffffffffff166103906104ce565b73ffffffffffffffffffffffffffffffffffffffff16146103e6576040517f08c379a00000000000000000000000000000000000000000000000000000000081526004016103dd90610c81565b60405180910390fd5b6103f060006106ff565b565b60006103fc6106f7565b73ffffffffffffffffffffffffffffffffffffffff1661041a6104ce565b73ffffffffffffffffffffffffffffffffffffffff1614610470576040517f08c379a000000000000000000000000000000000000000000000000000000000815260040161046790610c81565b60405180910390fd5b3373ffffffffffffffffffffffffffffffffffffffff166108fc479081150290604051600060405180830381858888f193505050501580156104b6573d6000803e3d6000fd5b50600047146104c8576104c7610ca1565b5b47905090565b60008060009054906101000a900473ffffffffffffffffffffffffffffffffffffffff16905090565b6104ff6106f7565b73ffffffffffffffffffffffffffffffffffffffff1661051d6104ce565b73ffffffffffffffffffffffffffffffffffffffff1614610573576040517f08c379a000000000000000000000000000000000000000000000000000000000815260040161056a90610c81565b60405180910390fd5b600034141561058157600080fd5b610596346001546107c390919063ffffffff16565b6001819055507fed7d0ddcc17abdb3935a0a23cd93e91b449dfeac7fd0def9f481ed5b37e18c4d33346040516105cd929190610cd0565b60405180910390a147600154146105e7576105e6610ca1565b5b565b6105f16106f7565b73ffffffffffffffffffffffffffffffffffffffff1661060f6104ce565b73ffffffffffffffffffffffffffffffffffffffff1614610665576040517f08c379a000000000000000000000000000000000000000000000000000000000815260040161065c90610c81565b60405180910390fd5b600073ffffffffffffffffffffffffffffffffffffffff168173ffffffffffffffffffffffffffffffffffffffff1614156106d5576040517f08c379a00000000000000000000000000000000000000000000000000000000081526004016106cc90610d6b565b60405180910390fd5b6106de816106ff565b50565b600081836106ef9190610b5b565b905092915050565b600033905090565b60008060009054906101000a900473ffffffffffffffffffffffffffffffffffffffff169050816000806101000a81548173ffffffffffffffffffffffffffffffffffffffff021916908373ffffffffffffffffffffffffffffffffffffffff1602179055508173ffffffffffffffffffffffffffffffffffffffff168173ffffffffffffffffffffffffffffffffffffffff167f8be0079c531659141344cd1fd0a4f28419497f9722a3daafe3b4186f6b6457e060405160405180910390a35050565b600081836107d19190610bb5565b905092915050565b6000819050919050565b6107ec816107d9565b82525050565b600060208201905061080760008301846107e3565b92915050565b600080fd5b600060ff82169050919050565b61082881610812565b811461083357600080fd5b50565b6000813590506108458161081f565b92915050565b6000602082840312156108615761086061080d565b5b600061086f84828501610836565b91505092915050565b60008115159050919050565b61088d81610878565b82525050565b60006020820190506108a86000830184610884565b92915050565b600073ffffffffffffffffffffffffffffffffffffffff82169050919050565b60006108d9826108ae565b9050919050565b6108e9816108ce565b82525050565b600060208201905061090460008301846108e0565b92915050565b610913816108ce565b811461091e57600080fd5b50565b6000813590506109308161090a565b92915050565b60006020828403121561094c5761094b61080d565b5b600061095a84828501610921565b91505092915050565b600082825260208201905092915050565b7f54686520636f6e7472616374206861736e277420656e6f756768742066756e6460008201527f7300000000000000000000000000000000000000000000000000000000000000602082015250565b60006109d0602183610963565b91506109db82610974565b604082019050919050565b600060208201905081810360008301526109ff816109c3565b9050919050565b7f496e636f727265637420736964652c206e6565647320746f2062652030206f7260008201527f2031000000000000000000000000000000000000000000000000000000000000602082015250565b6000610a62602283610963565b9150610a6d82610a06565b604082019050919050565b60006020820190508181036000830152610a9181610a55565b9050919050565b7f4e487b7100000000000000000000000000000000000000000000000000000000600052601260045260246000fd5b6000610ad2826107d9565b9150610add836107d9565b925082610aed57610aec610a98565b5b828206905092915050565b7f4e487b7100000000000000000000000000000000000000000000000000000000600052601160045260246000fd5b6000610b32826107d9565b9150610b3d836107d9565b925082821015610b5057610b4f610af8565b5b828203905092915050565b6000610b66826107d9565b9150610b71836107d9565b9250817fffffffffffffffffffffffffffffffffffffffffffffffffffffffffffffffff0483118215151615610baa57610ba9610af8565b5b828202905092915050565b6000610bc0826107d9565b9150610bcb836107d9565b9250827fffffffffffffffffffffffffffffffffffffffffffffffffffffffffffffffff03821115610c0057610bff610af8565b5b828201905092915050565b610c1481610812565b82525050565b6000602082019050610c2f6000830184610c0b565b92915050565b7f4f776e61626c653a2063616c6c6572206973206e6f7420746865206f776e6572600082015250565b6000610c6b602083610963565b9150610c7682610c35565b602082019050919050565b60006020820190508181036000830152610c9a81610c5e565b9050919050565b7f4e487b7100000000000000000000000000000000000000000000000000000000600052600160045260246000fd5b6000604082019050610ce560008301856108e0565b610cf260208301846107e3565b9392505050565b7f4f776e61626c653a206e6577206f776e657220697320746865207a65726f206160008201527f6464726573730000000000000000000000000000000000000000000000000000602082015250565b6000610d55602683610963565b9150610d6082610cf9565b604082019050919050565b60006020820190508181036000830152610d8481610d48565b905091905056fea2646970667358221220455f18d4d49c290a55e5881003f69511af360dd75477e47970ad9a144fb89d1464736f6c63430008090033",
  "immutableReferences": {},
  "source": "import \"@openzeppelin/contracts/access/Ownable.sol\";\r\nimport \"@openzeppelin/contracts/utils/math/SafeMath.sol\";\r\n\r\n\r\npragma solidity ^0.8.9;\r\n\r\ncontract FlipContract is Ownable {\r\n    \r\n    using SafeMath for uint256;\r\n\r\n    uint public ContractBalance;\r\n\r\n    event bet(address indexed user, uint indexed bet, bool indexed win, uint8 side);\r\n    event funded(address owner, uint funding);\r\n\r\n    // Function to simulate coin flip 50/50 randomnes\r\n    function flip(uint8 side) public payable returns(bool){\r\n        require(address(this).balance >= msg.value.mul(2), \"The contract hasn't enought funds\");\r\n        require(side == 0 || side == 1, \"Incorrect side, needs to be 0 or 1\");\r\n        bool win;\r\n        if(block.timestamp % 2 == side){\r\n            ContractBalance -= msg.value;\r\n            payable(msg.sender).transfer(msg.value * 2);\r\n            win = true;\r\n        }\r\n        else{\r\n            ContractBalance += msg.value;\r\n            win = false;\r\n        }\r\n        emit bet(msg.sender, msg.value, win, side);\r\n        return true; // Damien put this line in to make the compiler warnings go away.... not sure if it's breaking something. \r\n    }\r\n    // Function to Withdraw Funds\r\n    function withdrawAll() public onlyOwner returns(uint){\r\n        payable(msg.sender).transfer(address(this).balance);\r\n        assert(address(this).balance == 0);\r\n        return address(this).balance;\r\n    }\r\n    // Function to get the Balance of the Contract\r\n    function getBalance() public view returns (uint) {\r\n        return ContractBalance;\r\n    }\r\n    // Fund the Contract\r\n    function fundContract() public payable onlyOwner {\r\n        require(msg.value != 0);\r\n        ContractBalance = ContractBalance.add(msg.value);\r\n        emit funded(msg.sender, msg.value);\r\n        assert(ContractBalance == address(this).balance);\r\n    }\r\n\r\n}\r\n",
  "sourcePath": "C:\\code\\substratm\\truffle\\contracts\\flipcontract.sol",
  "compiler": {
    "name": "solc",
    "version": "0.8.9+commit.e5eed63a.Emscripten.clang"
  },
  "schemaVersion": "3.4.3",
  "updatedAt": "2021-11-23T09:53:49.558Z",
  "devdoc": {
    "kind": "dev",
    "methods": {
      "owner()": {
        "details": "Returns the address of the current owner."
      },
      "renounceOwnership()": {
        "details": "Leaves the contract without owner. It will not be possible to call `onlyOwner` functions anymore. Can only be called by the current owner. NOTE: Renouncing ownership will leave the contract without an owner, thereby removing any functionality that is only available to the owner."
      },
      "transferOwnership(address)": {
        "details": "Transfers ownership of the contract to a new account (`newOwner`). Can only be called by the current owner."
      }
    },
    "version": 1
  },
  "userdoc": {
    "kind": "user",
    "methods": {},
    "version": 1
  }
}