{
  "contractName": "SubstratmNFT",
  "abi": [
    {
      "inputs": [],
      "stateMutability": "nonpayable",
      "type": "constructor"
    },
    {
      "anonymous": false,
      "inputs": [
        {
          "indexed": true,
          "internalType": "address",
          "name": "owner",
          "type": "address"
        },
        {
          "indexed": true,
          "internalType": "address",
          "name": "approved",
          "type": "address"
        },
        {
          "indexed": true,
          "internalType": "uint256",
          "name": "tokenId",
          "type": "uint256"
        }
      ],
      "name": "Approval",
      "type": "event"
    },
    {
      "anonymous": false,
      "inputs": [
        {
          "indexed": true,
          "internalType": "address",
          "name": "owner",
          "type": "address"
        },
        {
          "indexed": true,
          "internalType": "address",
          "name": "operator",
          "type": "address"
        },
        {
          "indexed": false,
          "internalType": "bool",
          "name": "approved",
          "type": "bool"
        }
      ],
      "name": "ApprovalForAll",
      "type": "event"
    },
    {
      "anonymous": false,
      "inputs": [
        {
          "indexed": true,
          "internalType": "address",
          "name": "previousOwner",
          "type": "address"
        },
        {
          "indexed": true,
          "internalType": "address",
          "name": "newOwner",
          "type": "address"
        }
      ],
      "name": "OwnershipTransferred",
      "type": "event"
    },
    {
      "anonymous": false,
      "inputs": [
        {
          "indexed": true,
          "internalType": "address",
          "name": "from",
          "type": "address"
        },
        {
          "indexed": true,
          "internalType": "address",
          "name": "to",
          "type": "address"
        },
        {
          "indexed": true,
          "internalType": "uint256",
          "name": "tokenId",
          "type": "uint256"
        }
      ],
      "name": "Transfer",
      "type": "event"
    },
    {
      "inputs": [
        {
          "internalType": "address",
          "name": "to",
          "type": "address"
        },
        {
          "internalType": "uint256",
          "name": "tokenId",
          "type": "uint256"
        }
      ],
      "name": "approve",
      "outputs": [],
      "stateMutability": "nonpayable",
      "type": "function"
    },
    {
      "inputs": [
        {
          "internalType": "address",
          "name": "owner",
          "type": "address"
        }
      ],
      "name": "balanceOf",
      "outputs": [
        {
          "internalType": "uint256",
          "name": "",
          "type": "uint256"
        }
      ],
      "stateMutability": "view",
      "type": "function"
    },
    {
      "inputs": [
        {
          "internalType": "uint256",
          "name": "tokenId",
          "type": "uint256"
        }
      ],
      "name": "getApproved",
      "outputs": [
        {
          "internalType": "address",
          "name": "",
          "type": "address"
        }
      ],
      "stateMutability": "view",
      "type": "function"
    },
    {
      "inputs": [
        {
          "internalType": "address",
          "name": "owner",
          "type": "address"
        },
        {
          "internalType": "address",
          "name": "operator",
          "type": "address"
        }
      ],
      "name": "isApprovedForAll",
      "outputs": [
        {
          "internalType": "bool",
          "name": "",
          "type": "bool"
        }
      ],
      "stateMutability": "view",
      "type": "function"
    },
    {
      "inputs": [],
      "name": "name",
      "outputs": [
        {
          "internalType": "string",
          "name": "",
          "type": "string"
        }
      ],
      "stateMutability": "view",
      "type": "function"
    },
    {
      "inputs": [],
      "name": "owner",
      "outputs": [
        {
          "internalType": "address",
          "name": "",
          "type": "address"
        }
      ],
      "stateMutability": "view",
      "type": "function"
    },
    {
      "inputs": [
        {
          "internalType": "uint256",
          "name": "tokenId",
          "type": "uint256"
        }
      ],
      "name": "ownerOf",
      "outputs": [
        {
          "internalType": "address",
          "name": "",
          "type": "address"
        }
      ],
      "stateMutability": "view",
      "type": "function"
    },
    {
      "inputs": [
        {
          "internalType": "uint256",
          "name": "",
          "type": "uint256"
        }
      ],
      "name": "profileIdToOwnerAddress",
      "outputs": [
        {
          "internalType": "address",
          "name": "",
          "type": "address"
        }
      ],
      "stateMutability": "view",
      "type": "function"
    },
    {
      "inputs": [
        {
          "internalType": "uint256",
          "name": "",
          "type": "uint256"
        }
      ],
      "name": "profiles",
      "outputs": [
        {
          "internalType": "string",
          "name": "twitterHandle",
          "type": "string"
        }
      ],
      "stateMutability": "view",
      "type": "function"
    },
    {
      "inputs": [],
      "name": "renounceOwnership",
      "outputs": [],
      "stateMutability": "nonpayable",
      "type": "function"
    },
    {
      "inputs": [
        {
          "internalType": "address",
          "name": "from",
          "type": "address"
        },
        {
          "internalType": "address",
          "name": "to",
          "type": "address"
        },
        {
          "internalType": "uint256",
          "name": "tokenId",
          "type": "uint256"
        }
      ],
      "name": "safeTransferFrom",
      "outputs": [],
      "stateMutability": "nonpayable",
      "type": "function"
    },
    {
      "inputs": [
        {
          "internalType": "address",
          "name": "from",
          "type": "address"
        },
        {
          "internalType": "address",
          "name": "to",
          "type": "address"
        },
        {
          "internalType": "uint256",
          "name": "tokenId",
          "type": "uint256"
        },
        {
          "internalType": "bytes",
          "name": "_data",
          "type": "bytes"
        }
      ],
      "name": "safeTransferFrom",
      "outputs": [],
      "stateMutability": "nonpayable",
      "type": "function"
    },
    {
      "inputs": [
        {
          "internalType": "address",
          "name": "operator",
          "type": "address"
        },
        {
          "internalType": "bool",
          "name": "approved",
          "type": "bool"
        }
      ],
      "name": "setApprovalForAll",
      "outputs": [],
      "stateMutability": "nonpayable",
      "type": "function"
    },
    {
      "inputs": [
        {
          "internalType": "bytes4",
          "name": "interfaceId",
          "type": "bytes4"
        }
      ],
      "name": "supportsInterface",
      "outputs": [
        {
          "internalType": "bool",
          "name": "",
          "type": "bool"
        }
      ],
      "stateMutability": "view",
      "type": "function"
    },
    {
      "inputs": [],
      "name": "symbol",
      "outputs": [
        {
          "internalType": "string",
          "name": "",
          "type": "string"
        }
      ],
      "stateMutability": "view",
      "type": "function"
    },
    {
      "inputs": [
        {
          "internalType": "uint256",
          "name": "tokenId",
          "type": "uint256"
        }
      ],
      "name": "tokenURI",
      "outputs": [
        {
          "internalType": "string",
          "name": "",
          "type": "string"
        }
      ],
      "stateMutability": "view",
      "type": "function"
    },
    {
      "inputs": [
        {
          "internalType": "address",
          "name": "from",
          "type": "address"
        },
        {
          "internalType": "address",
          "name": "to",
          "type": "address"
        },
        {
          "internalType": "uint256",
          "name": "tokenId",
          "type": "uint256"
        }
      ],
      "name": "transferFrom",
      "outputs": [],
      "stateMutability": "nonpayable",
      "type": "function"
    },
    {
      "inputs": [
        {
          "internalType": "address",
          "name": "newOwner",
          "type": "address"
        }
      ],
      "name": "transferOwnership",
      "outputs": [],
      "stateMutability": "nonpayable",
      "type": "function"
    },
    {
      "inputs": [
        {
          "internalType": "uint256",
          "name": "profileId",
          "type": "uint256"
        }
      ],
      "name": "getProfileMetadata",
      "outputs": [
        {
          "internalType": "string",
          "name": "",
          "type": "string"
        }
      ],
      "stateMutability": "view",
      "type": "function"
    },
    {
      "inputs": [
        {
          "internalType": "uint256",
          "name": "profileId",
          "type": "uint256"
        }
      ],
      "name": "updateSubstratmProfile",
      "outputs": [],
      "stateMutability": "nonpayable",
      "type": "function"
    },
    {
      "inputs": [
        {
          "internalType": "string",
          "name": "baseURI_",
          "type": "string"
        }
      ],
      "name": "setBaseURI",
      "outputs": [],
      "stateMutability": "nonpayable",
      "type": "function"
    },
    {
      "inputs": [
        {
          "internalType": "string",
          "name": "twitterHandle",
          "type": "string"
        }
      ],
      "name": "requestToMintNewSubstratmProfileNFT",
      "outputs": [],
      "stateMutability": "nonpayable",
      "type": "function"
    },
    {
      "inputs": [
        {
          "internalType": "uint256",
          "name": "profileId",
          "type": "uint256"
        },
        {
          "internalType": "string",
          "name": "_profileURI",
          "type": "string"
        }
      ],
      "name": "setTokenURI",
      "outputs": [],
      "stateMutability": "nonpayable",
      "type": "function"
    }
  ],
  "bytecode": "0x60806040523480156200001157600080fd5b506040518060400160405280600c81526020017f53756273747261746d4e465400000000000000000000000000000000000000008152506040518060400160405280600581526020017f5342535452000000000000000000000000000000000000000000000000000000815250816000908051906020019062000096929190620001a6565b508060019080519060200190620000af929190620001a6565b505050620000d2620000c6620000d860201b60201c565b620000e060201b60201c565b620002bb565b600033905090565b6000600760009054906101000a900473ffffffffffffffffffffffffffffffffffffffff16905081600760006101000a81548173ffffffffffffffffffffffffffffffffffffffff021916908373ffffffffffffffffffffffffffffffffffffffff1602179055508173ffffffffffffffffffffffffffffffffffffffff168173ffffffffffffffffffffffffffffffffffffffff167f8be0079c531659141344cd1fd0a4f28419497f9722a3daafe3b4186f6b6457e060405160405180910390a35050565b828054620001b49062000285565b90600052602060002090601f016020900481019282620001d8576000855562000224565b82601f10620001f357805160ff191683800117855562000224565b8280016001018555821562000224579182015b828111156200022357825182559160200191906001019062000206565b5b50905062000233919062000237565b5090565b5b808211156200025257600081600090555060010162000238565b5090565b7f4e487b7100000000000000000000000000000000000000000000000000000000600052602260045260246000fd5b600060028204905060018216806200029e57607f821691505b60208210811415620002b557620002b462000256565b5b50919050565b61359980620002cb6000396000f3fe608060405234801561001057600080fd5b506004361061014d5760003560e01c806370a08231116100c3578063b88d4fde1161007c578063b88d4fde14610386578063c36fe3d6146103a2578063c87b56dd146103d2578063e985e9c514610402578063f2fde38b14610432578063f8019c5e1461044e5761014d565b806370a08231146102d8578063715018a61461030857806376983a66146103125780638da5cb5b1461032e57806395d89b411461034c578063a22cb4651461036a5761014d565b8063162094c411610115578063162094c41461020857806323b872dd146102245780632eb79e281461024057806342842e0e1461027057806355f804b31461028c5780636352211e146102a85761014d565b8063013e2fce1461015257806301ffc9a71461016e57806306fdde031461019e578063081812fc146101bc578063095ea7b3146101ec575b600080fd5b61016c60048036038101906101679190612210565b61047e565b005b610188600480360381019061018391906122b1565b61053d565b60405161019591906122f9565b60405180910390f35b6101a661061f565b6040516101b3919061239c565b60405180910390f35b6101d660048036038101906101d191906123f4565b6106b1565b6040516101e39190612462565b60405180910390f35b610206600480360381019061020191906124a9565b610736565b005b610222600480360381019061021d91906124e9565b61084e565b005b61023e60048036038101906102399190612545565b6108ac565b005b61025a600480360381019061025591906123f4565b61090c565b6040516102679190612462565b60405180910390f35b61028a60048036038101906102859190612545565b61093f565b005b6102a660048036038101906102a19190612210565b61095f565b005b6102c260048036038101906102bd91906123f4565b6109f5565b6040516102cf9190612462565b60405180910390f35b6102f260048036038101906102ed9190612598565b610aa7565b6040516102ff91906125d4565b60405180910390f35b610310610b5f565b005b61032c600480360381019061032791906123f4565b610be7565b005b610336610c3a565b6040516103439190612462565b60405180910390f35b610354610c64565b604051610361919061239c565b60405180910390f35b610384600480360381019061037f919061261b565b610cf6565b005b6103a0600480360381019061039b91906126fc565b610e77565b005b6103bc60048036038101906103b791906123f4565b610ed9565b6040516103c9919061239c565b60405180910390f35b6103ec60048036038101906103e791906123f4565b610f8b565b6040516103f9919061239c565b60405180910390f35b61041c6004803603810190610417919061277f565b6110dd565b60405161042991906122f9565b60405180910390f35b61044c60048036038101906104479190612598565b611171565b005b610468600480360381019061046391906123f4565b611269565b604051610475919061239c565b60405180910390f35b6000600b805490509050600b6040518060200160405280848152509080600181540180825580915050600190039060005260206000200160009091909190915060008201518160000190805190602001906104da929190612013565b50505033600a600083815260200190815260200160002060006101000a81548173ffffffffffffffffffffffffffffffffffffffff021916908373ffffffffffffffffffffffffffffffffffffffff160217905550610539338261131c565b5050565b60007f80ac58cd000000000000000000000000000000000000000000000000000000007bffffffffffffffffffffffffffffffffffffffffffffffffffffffff1916827bffffffffffffffffffffffffffffffffffffffffffffffffffffffff1916148061060857507f5b5e139f000000000000000000000000000000000000000000000000000000007bffffffffffffffffffffffffffffffffffffffffffffffffffffffff1916827bffffffffffffffffffffffffffffffffffffffffffffffffffffffff1916145b8061061857506106178261133a565b5b9050919050565b60606000805461062e906127ee565b80601f016020809104026020016040519081016040528092919081815260200182805461065a906127ee565b80156106a75780601f1061067c576101008083540402835291602001916106a7565b820191906000526020600020905b81548152906001019060200180831161068a57829003601f168201915b5050505050905090565b60006106bc826113a4565b6106fb576040517f08c379a00000000000000000000000000000000000000000000000000000000081526004016106f290612892565b60405180910390fd5b6004600083815260200190815260200160002060009054906101000a900473ffffffffffffffffffffffffffffffffffffffff169050919050565b6000610741826109f5565b90508073ffffffffffffffffffffffffffffffffffffffff168373ffffffffffffffffffffffffffffffffffffffff1614156107b2576040517f08c379a00000000000000000000000000000000000000000000000000000000081526004016107a990612924565b60405180910390fd5b8073ffffffffffffffffffffffffffffffffffffffff166107d1611410565b73ffffffffffffffffffffffffffffffffffffffff16148061080057506107ff816107fa611410565b6110dd565b5b61083f576040517f08c379a0000000000000000000000000000000000000000000000000000000008152600401610836906129b6565b60405180910390fd5b6108498383611418565b505050565b61085f610859611410565b836114d1565b61089e576040517f08c379a000000000000000000000000000000000000000000000000000000000815260040161089590612a48565b60405180910390fd5b6108a882826115af565b5050565b6108bd6108b7611410565b826114d1565b6108fc576040517f08c379a00000000000000000000000000000000000000000000000000000000081526004016108f390612a48565b60405180910390fd5b610907838383611623565b505050565b600a6020528060005260406000206000915054906101000a900473ffffffffffffffffffffffffffffffffffffffff1681565b61095a83838360405180602001604052806000815250610e77565b505050565b610967611410565b73ffffffffffffffffffffffffffffffffffffffff16610985610c3a565b73ffffffffffffffffffffffffffffffffffffffff16146109db576040517f08c379a00000000000000000000000000000000000000000000000000000000081526004016109d290612ab4565b60405180910390fd5b80600890805190602001906109f1929190612013565b5050565b6000806002600084815260200190815260200160002060009054906101000a900473ffffffffffffffffffffffffffffffffffffffff169050600073ffffffffffffffffffffffffffffffffffffffff168173ffffffffffffffffffffffffffffffffffffffff161415610a9e576040517f08c379a0000000000000000000000000000000000000000000000000000000008152600401610a9590612b46565b60405180910390fd5b80915050919050565b60008073ffffffffffffffffffffffffffffffffffffffff168273ffffffffffffffffffffffffffffffffffffffff161415610b18576040517f08c379a0000000000000000000000000000000000000000000000000000000008152600401610b0f90612bd8565b60405180910390fd5b600360008373ffffffffffffffffffffffffffffffffffffffff1673ffffffffffffffffffffffffffffffffffffffff168152602001908152602001600020549050919050565b610b67611410565b73ffffffffffffffffffffffffffffffffffffffff16610b85610c3a565b73ffffffffffffffffffffffffffffffffffffffff1614610bdb576040517f08c379a0000000000000000000000000000000000000000000000000000000008152600401610bd290612ab4565b60405180910390fd5b610be5600061187f565b565b610bf8610bf2611410565b826114d1565b610c37576040517f08c379a0000000000000000000000000000000000000000000000000000000008152600401610c2e90612c6a565b60405180910390fd5b50565b6000600760009054906101000a900473ffffffffffffffffffffffffffffffffffffffff16905090565b606060018054610c73906127ee565b80601f0160208091040260200160405190810160405280929190818152602001828054610c9f906127ee565b8015610cec5780601f10610cc157610100808354040283529160200191610cec565b820191906000526020600020905b815481529060010190602001808311610ccf57829003601f168201915b5050505050905090565b610cfe611410565b73ffffffffffffffffffffffffffffffffffffffff168273ffffffffffffffffffffffffffffffffffffffff161415610d6c576040517f08c379a0000000000000000000000000000000000000000000000000000000008152600401610d6390612cd6565b60405180910390fd5b8060056000610d79611410565b73ffffffffffffffffffffffffffffffffffffffff1673ffffffffffffffffffffffffffffffffffffffff16815260200190815260200160002060008473ffffffffffffffffffffffffffffffffffffffff1673ffffffffffffffffffffffffffffffffffffffff16815260200190815260200160002060006101000a81548160ff0219169083151502179055508173ffffffffffffffffffffffffffffffffffffffff16610e26611410565b73ffffffffffffffffffffffffffffffffffffffff167f17307eab39ab6107e8899845ad3d59bd9653f200f220920489ca2b5937696c3183604051610e6b91906122f9565b60405180910390a35050565b610e88610e82611410565b836114d1565b610ec7576040517f08c379a0000000000000000000000000000000000000000000000000000000008152600401610ebe90612a48565b60405180910390fd5b610ed384848484611945565b50505050565b600b8181548110610ee957600080fd5b90600052602060002001600091509050806000018054610f08906127ee565b80601f0160208091040260200160405190810160405280929190818152602001828054610f34906127ee565b8015610f815780601f10610f5657610100808354040283529160200191610f81565b820191906000526020600020905b815481529060010190602001808311610f6457829003601f168201915b5050505050905081565b6060610f96826113a4565b610fd5576040517f08c379a0000000000000000000000000000000000000000000000000000000008152600401610fcc90612d68565b60405180910390fd5b6000600660008481526020019081526020016000208054610ff5906127ee565b80601f0160208091040260200160405190810160405280929190818152602001828054611021906127ee565b801561106e5780601f106110435761010080835404028352916020019161106e565b820191906000526020600020905b81548152906001019060200180831161105157829003601f168201915b50505050509050600061107f6119a1565b90506000815114156110955781925050506110d8565b6000825111156110ca5780826040516020016110b2929190612dc4565b604051602081830303815290604052925050506110d8565b6110d384611a33565b925050505b919050565b6000600560008473ffffffffffffffffffffffffffffffffffffffff1673ffffffffffffffffffffffffffffffffffffffff16815260200190815260200160002060008373ffffffffffffffffffffffffffffffffffffffff1673ffffffffffffffffffffffffffffffffffffffff16815260200190815260200160002060009054906101000a900460ff16905092915050565b611179611410565b73ffffffffffffffffffffffffffffffffffffffff16611197610c3a565b73ffffffffffffffffffffffffffffffffffffffff16146111ed576040517f08c379a00000000000000000000000000000000000000000000000000000000081526004016111e490612ab4565b60405180910390fd5b600073ffffffffffffffffffffffffffffffffffffffff168173ffffffffffffffffffffffffffffffffffffffff16141561125d576040517f08c379a000000000000000000000000000000000000000000000000000000000815260040161125490612e5a565b60405180910390fd5b6112668161187f565b50565b6060600b828154811061127f5761127e612e7a565b5b906000526020600020016000018054611297906127ee565b80601f01602080910402602001604051908101604052809291908181526020018280546112c3906127ee565b80156113105780601f106112e557610100808354040283529160200191611310565b820191906000526020600020905b8154815290600101906020018083116112f357829003601f168201915b50505050509050919050565b611336828260405180602001604052806000815250611ada565b5050565b60007f01ffc9a7000000000000000000000000000000000000000000000000000000007bffffffffffffffffffffffffffffffffffffffffffffffffffffffff1916827bffffffffffffffffffffffffffffffffffffffffffffffffffffffff1916149050919050565b60008073ffffffffffffffffffffffffffffffffffffffff166002600084815260200190815260200160002060009054906101000a900473ffffffffffffffffffffffffffffffffffffffff1673ffffffffffffffffffffffffffffffffffffffff1614159050919050565b600033905090565b816004600083815260200190815260200160002060006101000a81548173ffffffffffffffffffffffffffffffffffffffff021916908373ffffffffffffffffffffffffffffffffffffffff160217905550808273ffffffffffffffffffffffffffffffffffffffff1661148b836109f5565b73ffffffffffffffffffffffffffffffffffffffff167f8c5be1e5ebec7d5bd14f71427d1e84f3dd0314c0f7b2291e5b200ac8c7c3b92560405160405180910390a45050565b60006114dc826113a4565b61151b576040517f08c379a000000000000000000000000000000000000000000000000000000000815260040161151290612f1b565b60405180910390fd5b6000611526836109f5565b90508073ffffffffffffffffffffffffffffffffffffffff168473ffffffffffffffffffffffffffffffffffffffff16148061159557508373ffffffffffffffffffffffffffffffffffffffff1661157d846106b1565b73ffffffffffffffffffffffffffffffffffffffff16145b806115a657506115a581856110dd565b5b91505092915050565b6115b8826113a4565b6115f7576040517f08c379a00000000000000000000000000000000000000000000000000000000081526004016115ee90612fad565b60405180910390fd5b8060066000848152602001908152602001600020908051906020019061161e929190612013565b505050565b8273ffffffffffffffffffffffffffffffffffffffff16611643826109f5565b73ffffffffffffffffffffffffffffffffffffffff1614611699576040517f08c379a00000000000000000000000000000000000000000000000000000000081526004016116909061303f565b60405180910390fd5b600073ffffffffffffffffffffffffffffffffffffffff168273ffffffffffffffffffffffffffffffffffffffff161415611709576040517f08c379a0000000000000000000000000000000000000000000000000000000008152600401611700906130d1565b60405180910390fd5b611714838383611b35565b61171f600082611418565b6001600360008573ffffffffffffffffffffffffffffffffffffffff1673ffffffffffffffffffffffffffffffffffffffff168152602001908152602001600020600082825461176f9190613120565b925050819055506001600360008473ffffffffffffffffffffffffffffffffffffffff1673ffffffffffffffffffffffffffffffffffffffff16815260200190815260200160002060008282546117c69190613154565b92505081905550816002600083815260200190815260200160002060006101000a81548173ffffffffffffffffffffffffffffffffffffffff021916908373ffffffffffffffffffffffffffffffffffffffff160217905550808273ffffffffffffffffffffffffffffffffffffffff168473ffffffffffffffffffffffffffffffffffffffff167fddf252ad1be2c89b69c2b068fc378daa952ba7f163c4a11628f55a4df523b3ef60405160405180910390a4505050565b6000600760009054906101000a900473ffffffffffffffffffffffffffffffffffffffff16905081600760006101000a81548173ffffffffffffffffffffffffffffffffffffffff021916908373ffffffffffffffffffffffffffffffffffffffff1602179055508173ffffffffffffffffffffffffffffffffffffffff168173ffffffffffffffffffffffffffffffffffffffff167f8be0079c531659141344cd1fd0a4f28419497f9722a3daafe3b4186f6b6457e060405160405180910390a35050565b611950848484611623565b61195c84848484611b3a565b61199b576040517f08c379a00000000000000000000000000000000000000000000000000000000081526004016119929061321c565b60405180910390fd5b50505050565b6060600880546119b0906127ee565b80601f01602080910402602001604051908101604052809291908181526020018280546119dc906127ee565b8015611a295780601f106119fe57610100808354040283529160200191611a29565b820191906000526020600020905b815481529060010190602001808311611a0c57829003601f168201915b5050505050905090565b6060611a3e826113a4565b611a7d576040517f08c379a0000000000000000000000000000000000000000000000000000000008152600401611a74906132ae565b60405180910390fd5b6000611a876119a1565b90506000815111611aa75760405180602001604052806000815250611ad2565b80611ab184611cd1565b604051602001611ac2929190612dc4565b6040516020818303038152906040525b915050919050565b611ae48383611e32565b611af16000848484611b3a565b611b30576040517f08c379a0000000000000000000000000000000000000000000000000000000008152600401611b279061321c565b60405180910390fd5b505050565b505050565b6000611b5b8473ffffffffffffffffffffffffffffffffffffffff16612000565b15611cc4578373ffffffffffffffffffffffffffffffffffffffff1663150b7a02611b84611410565b8786866040518563ffffffff1660e01b8152600401611ba69493929190613323565b602060405180830381600087803b158015611bc057600080fd5b505af1925050508015611bf157506040513d601f19601f82011682018060405250810190611bee9190613384565b60015b611c74573d8060008114611c21576040519150601f19603f3d011682016040523d82523d6000602084013e611c26565b606091505b50600081511415611c6c576040517f08c379a0000000000000000000000000000000000000000000000000000000008152600401611c639061321c565b60405180910390fd5b805181602001fd5b63150b7a0260e01b7bffffffffffffffffffffffffffffffffffffffffffffffffffffffff1916817bffffffffffffffffffffffffffffffffffffffffffffffffffffffff191614915050611cc9565b600190505b949350505050565b60606000821415611d19576040518060400160405280600181526020017f30000000000000000000000000000000000000000000000000000000000000008152509050611e2d565b600082905060005b60008214611d4b578080611d34906133b1565b915050600a82611d449190613429565b9150611d21565b60008167ffffffffffffffff811115611d6757611d666120e5565b5b6040519080825280601f01601f191660200182016040528015611d995781602001600182028036833780820191505090505b5090505b60008514611e2657600182611db29190613120565b9150600a85611dc1919061345a565b6030611dcd9190613154565b60f81b818381518110611de357611de2612e7a565b5b60200101907effffffffffffffffffffffffffffffffffffffffffffffffffffffffffffff1916908160001a905350600a85611e1f9190613429565b9450611d9d565b8093505050505b919050565b600073ffffffffffffffffffffffffffffffffffffffff168273ffffffffffffffffffffffffffffffffffffffff161415611ea2576040517f08c379a0000000000000000000000000000000000000000000000000000000008152600401611e99906134d7565b60405180910390fd5b611eab816113a4565b15611eeb576040517f08c379a0000000000000000000000000000000000000000000000000000000008152600401611ee290613543565b60405180910390fd5b611ef760008383611b35565b6001600360008473ffffffffffffffffffffffffffffffffffffffff1673ffffffffffffffffffffffffffffffffffffffff1681526020019081526020016000206000828254611f479190613154565b92505081905550816002600083815260200190815260200160002060006101000a81548173ffffffffffffffffffffffffffffffffffffffff021916908373ffffffffffffffffffffffffffffffffffffffff160217905550808273ffffffffffffffffffffffffffffffffffffffff16600073ffffffffffffffffffffffffffffffffffffffff167fddf252ad1be2c89b69c2b068fc378daa952ba7f163c4a11628f55a4df523b3ef60405160405180910390a45050565b600080823b905060008111915050919050565b82805461201f906127ee565b90600052602060002090601f0160209004810192826120415760008555612088565b82601f1061205a57805160ff1916838001178555612088565b82800160010185558215612088579182015b8281111561208757825182559160200191906001019061206c565b5b5090506120959190612099565b5090565b5b808211156120b257600081600090555060010161209a565b5090565b6000604051905090565b600080fd5b600080fd5b600080fd5b600080fd5b6000601f19601f8301169050919050565b7f4e487b7100000000000000000000000000000000000000000000000000000000600052604160045260246000fd5b61211d826120d4565b810181811067ffffffffffffffff8211171561213c5761213b6120e5565b5b80604052505050565b600061214f6120b6565b905061215b8282612114565b919050565b600067ffffffffffffffff82111561217b5761217a6120e5565b5b612184826120d4565b9050602081019050919050565b82818337600083830152505050565b60006121b36121ae84612160565b612145565b9050828152602081018484840111156121cf576121ce6120cf565b5b6121da848285612191565b509392505050565b600082601f8301126121f7576121f66120ca565b5b81356122078482602086016121a0565b91505092915050565b600060208284031215612226576122256120c0565b5b600082013567ffffffffffffffff811115612244576122436120c5565b5b612250848285016121e2565b91505092915050565b60007fffffffff0000000000000000000000000000000000000000000000000000000082169050919050565b61228e81612259565b811461229957600080fd5b50565b6000813590506122ab81612285565b92915050565b6000602082840312156122c7576122c66120c0565b5b60006122d58482850161229c565b91505092915050565b60008115159050919050565b6122f3816122de565b82525050565b600060208201905061230e60008301846122ea565b92915050565b600081519050919050565b600082825260208201905092915050565b60005b8381101561234e578082015181840152602081019050612333565b8381111561235d576000848401525b50505050565b600061236e82612314565b612378818561231f565b9350612388818560208601612330565b612391816120d4565b840191505092915050565b600060208201905081810360008301526123b68184612363565b905092915050565b6000819050919050565b6123d1816123be565b81146123dc57600080fd5b50565b6000813590506123ee816123c8565b92915050565b60006020828403121561240a576124096120c0565b5b6000612418848285016123df565b91505092915050565b600073ffffffffffffffffffffffffffffffffffffffff82169050919050565b600061244c82612421565b9050919050565b61245c81612441565b82525050565b60006020820190506124776000830184612453565b92915050565b61248681612441565b811461249157600080fd5b50565b6000813590506124a38161247d565b92915050565b600080604083850312156124c0576124bf6120c0565b5b60006124ce85828601612494565b92505060206124df858286016123df565b9150509250929050565b60008060408385031215612500576124ff6120c0565b5b600061250e858286016123df565b925050602083013567ffffffffffffffff81111561252f5761252e6120c5565b5b61253b858286016121e2565b9150509250929050565b60008060006060848603121561255e5761255d6120c0565b5b600061256c86828701612494565b935050602061257d86828701612494565b925050604061258e868287016123df565b9150509250925092565b6000602082840312156125ae576125ad6120c0565b5b60006125bc84828501612494565b91505092915050565b6125ce816123be565b82525050565b60006020820190506125e960008301846125c5565b92915050565b6125f8816122de565b811461260357600080fd5b50565b600081359050612615816125ef565b92915050565b60008060408385031215612632576126316120c0565b5b600061264085828601612494565b925050602061265185828601612606565b9150509250929050565b600067ffffffffffffffff821115612676576126756120e5565b5b61267f826120d4565b9050602081019050919050565b600061269f61269a8461265b565b612145565b9050828152602081018484840111156126bb576126ba6120cf565b5b6126c6848285612191565b509392505050565b600082601f8301126126e3576126e26120ca565b5b81356126f384826020860161268c565b91505092915050565b60008060008060808587031215612716576127156120c0565b5b600061272487828801612494565b945050602061273587828801612494565b9350506040612746878288016123df565b925050606085013567ffffffffffffffff811115612767576127666120c5565b5b612773878288016126ce565b91505092959194509250565b60008060408385031215612796576127956120c0565b5b60006127a485828601612494565b92505060206127b585828601612494565b9150509250929050565b7f4e487b7100000000000000000000000000000000000000000000000000000000600052602260045260246000fd5b6000600282049050600182168061280657607f821691505b6020821081141561281a576128196127bf565b5b50919050565b7f4552433732313a20617070726f76656420717565727920666f72206e6f6e657860008201527f697374656e7420746f6b656e0000000000000000000000000000000000000000602082015250565b600061287c602c8361231f565b915061288782612820565b604082019050919050565b600060208201905081810360008301526128ab8161286f565b9050919050565b7f4552433732313a20617070726f76616c20746f2063757272656e74206f776e6560008201527f7200000000000000000000000000000000000000000000000000000000000000602082015250565b600061290e60218361231f565b9150612919826128b2565b604082019050919050565b6000602082019050818103600083015261293d81612901565b9050919050565b7f4552433732313a20617070726f76652063616c6c6572206973206e6f74206f7760008201527f6e6572206e6f7220617070726f76656420666f7220616c6c0000000000000000602082015250565b60006129a060388361231f565b91506129ab82612944565b604082019050919050565b600060208201905081810360008301526129cf81612993565b9050919050565b7f4552433732313a207472616e736665722063616c6c6572206973206e6f74206f60008201527f776e6572206e6f7220617070726f766564000000000000000000000000000000602082015250565b6000612a3260318361231f565b9150612a3d826129d6565b604082019050919050565b60006020820190508181036000830152612a6181612a25565b9050919050565b7f4f776e61626c653a2063616c6c6572206973206e6f7420746865206f776e6572600082015250565b6000612a9e60208361231f565b9150612aa982612a68565b602082019050919050565b60006020820190508181036000830152612acd81612a91565b9050919050565b7f4552433732313a206f776e657220717565727920666f72206e6f6e657869737460008201527f656e7420746f6b656e0000000000000000000000000000000000000000000000602082015250565b6000612b3060298361231f565b9150612b3b82612ad4565b604082019050919050565b60006020820190508181036000830152612b5f81612b23565b9050919050565b7f4552433732313a2062616c616e636520717565727920666f7220746865207a6560008201527f726f206164647265737300000000000000000000000000000000000000000000602082015250565b6000612bc2602a8361231f565b9150612bcd82612b66565b604082019050919050565b60006020820190508181036000830152612bf181612bb5565b9050919050565b7f4552433732313a2075706461746553756273747261746d50726f66696c65206360008201527f616c6c6572206973206e6f74206f776e6572206e6f7220617070726f76656400602082015250565b6000612c54603f8361231f565b9150612c5f82612bf8565b604082019050919050565b60006020820190508181036000830152612c8381612c47565b9050919050565b7f4552433732313a20617070726f766520746f2063616c6c657200000000000000600082015250565b6000612cc060198361231f565b9150612ccb82612c8a565b602082019050919050565b60006020820190508181036000830152612cef81612cb3565b9050919050565b7f45524337323155524953746f726167653a2055524920717565727920666f722060008201527f6e6f6e6578697374656e7420746f6b656e000000000000000000000000000000602082015250565b6000612d5260318361231f565b9150612d5d82612cf6565b604082019050919050565b60006020820190508181036000830152612d8181612d45565b9050919050565b600081905092915050565b6000612d9e82612314565b612da88185612d88565b9350612db8818560208601612330565b80840191505092915050565b6000612dd08285612d93565b9150612ddc8284612d93565b91508190509392505050565b7f4f776e61626c653a206e6577206f776e657220697320746865207a65726f206160008201527f6464726573730000000000000000000000000000000000000000000000000000602082015250565b6000612e4460268361231f565b9150612e4f82612de8565b604082019050919050565b60006020820190508181036000830152612e7381612e37565b9050919050565b7f4e487b7100000000000000000000000000000000000000000000000000000000600052603260045260246000fd5b7f4552433732313a206f70657261746f7220717565727920666f72206e6f6e657860008201527f697374656e7420746f6b656e0000000000000000000000000000000000000000602082015250565b6000612f05602c8361231f565b9150612f1082612ea9565b604082019050919050565b60006020820190508181036000830152612f3481612ef8565b9050919050565b7f45524337323155524953746f726167653a2055524920736574206f66206e6f6e60008201527f6578697374656e7420746f6b656e000000000000000000000000000000000000602082015250565b6000612f97602e8361231f565b9150612fa282612f3b565b604082019050919050565b60006020820190508181036000830152612fc681612f8a565b9050919050565b7f4552433732313a207472616e73666572206f6620746f6b656e2074686174206960008201527f73206e6f74206f776e0000000000000000000000000000000000000000000000602082015250565b600061302960298361231f565b915061303482612fcd565b604082019050919050565b600060208201905081810360008301526130588161301c565b9050919050565b7f4552433732313a207472616e7366657220746f20746865207a65726f2061646460008201527f7265737300000000000000000000000000000000000000000000000000000000602082015250565b60006130bb60248361231f565b91506130c68261305f565b604082019050919050565b600060208201905081810360008301526130ea816130ae565b9050919050565b7f4e487b7100000000000000000000000000000000000000000000000000000000600052601160045260246000fd5b600061312b826123be565b9150613136836123be565b925082821015613149576131486130f1565b5b828203905092915050565b600061315f826123be565b915061316a836123be565b9250827fffffffffffffffffffffffffffffffffffffffffffffffffffffffffffffffff0382111561319f5761319e6130f1565b5b828201905092915050565b7f4552433732313a207472616e7366657220746f206e6f6e20455243373231526560008201527f63656976657220696d706c656d656e7465720000000000000000000000000000602082015250565b600061320660328361231f565b9150613211826131aa565b604082019050919050565b60006020820190508181036000830152613235816131f9565b9050919050565b7f4552433732314d657461646174613a2055524920717565727920666f72206e6f60008201527f6e6578697374656e7420746f6b656e0000000000000000000000000000000000602082015250565b6000613298602f8361231f565b91506132a38261323c565b604082019050919050565b600060208201905081810360008301526132c78161328b565b9050919050565b600081519050919050565b600082825260208201905092915050565b60006132f5826132ce565b6132ff81856132d9565b935061330f818560208601612330565b613318816120d4565b840191505092915050565b60006080820190506133386000830187612453565b6133456020830186612453565b61335260408301856125c5565b818103606083015261336481846132ea565b905095945050505050565b60008151905061337e81612285565b92915050565b60006020828403121561339a576133996120c0565b5b60006133a88482850161336f565b91505092915050565b60006133bc826123be565b91507fffffffffffffffffffffffffffffffffffffffffffffffffffffffffffffffff8214156133ef576133ee6130f1565b5b600182019050919050565b7f4e487b7100000000000000000000000000000000000000000000000000000000600052601260045260246000fd5b6000613434826123be565b915061343f836123be565b92508261344f5761344e6133fa565b5b828204905092915050565b6000613465826123be565b9150613470836123be565b9250826134805761347f6133fa565b5b828206905092915050565b7f4552433732313a206d696e7420746f20746865207a65726f2061646472657373600082015250565b60006134c160208361231f565b91506134cc8261348b565b602082019050919050565b600060208201905081810360008301526134f0816134b4565b9050919050565b7f4552433732313a20746f6b656e20616c7265616479206d696e74656400000000600082015250565b600061352d601c8361231f565b9150613538826134f7565b602082019050919050565b6000602082019050818103600083015261355c81613520565b905091905056fea2646970667358221220d52754dc42781be1849ef8297fe9cb83ccdf173dfe48c47754a1018cead51eea64736f6c63430008090033",
  "immutableReferences": {},
  "source": "// SPDX-License-Identifier: MIT\npragma solidity ^0.8.0;\n\nimport \"@openzeppelin/contracts/access/Ownable.sol\";\nimport \"@openzeppelin/contracts/token/ERC721/extensions/ERC721URIStorage.sol\";\ncontract SubstratmNFT is ERC721URIStorage, Ownable {\n    struct Profile {\n        string twitterHandle;\n    }\n    // Base URI\n    string private _baseURIextended;\n\n    mapping(address => uint256) walletToProfileId;\n    mapping(uint256 => address) public profileIdToOwnerAddress;\n    Profile[] public profiles;\n    uint256 internal fee;\n    \n    constructor() ERC721(\"SubstratmNFT\", \"SBSTR\") public { \n        \n    }\n    \n    function getProfileMetadata(uint256 profileId)\n    public\n    view\n    returns (\n        string memory\n    )\n    {\n        // TODO return all profile Metadata\n        return (\n            profiles[profileId].twitterHandle\n        );\n    }\n\n    function updateSubstratmProfile(\n        uint256 profileId        \n    ) public {\n        require(\n            _isApprovedOrOwner(_msgSender(), profileId), \"ERC721: updateSubstratmProfile caller is not owner nor approved\"\n        );\n        // TODO: add functionality to update Substratm Profile\n    }\n    function setBaseURI(string memory baseURI_) external onlyOwner() {\n        _baseURIextended = baseURI_;\n    }\n\n    function _baseURI() internal view virtual override returns (string memory) {\n        return _baseURIextended;\n    }\n\n    function requestToMintNewSubstratmProfileNFT(\n        string memory twitterHandle\n    ) public {\n        // TODO validate twitter handle\n        uint256 newId = profiles.length;\n        \n        profiles.push(\n            Profile({\n                twitterHandle: twitterHandle\n            })\n        );\n        profileIdToOwnerAddress[newId] = msg.sender; // profile Id mapping to wallet Id\n        _safeMint(msg.sender, newId);\n    }\n\n    function setTokenURI(uint256 profileId, string memory _profileURI) public {\n        require(\n            _isApprovedOrOwner(_msgSender(), profileId), \"ERC721: transfer caller is not owner nor approved\"\n        );\n        _setTokenURI(profileId, _profileURI);\n    }\n\n\n}",
  "sourcePath": "C:\\code\\substratm\\truffle\\contracts\\SubstratmNFT.sol",
  "compiler": {
    "name": "solc",
    "version": "0.8.9+commit.e5eed63a.Emscripten.clang"
  },
  "schemaVersion": "3.4.3",
  "updatedAt": "2021-11-23T09:53:49.549Z",
  "devdoc": {
    "kind": "dev",
    "methods": {
      "approve(address,uint256)": {
        "details": "See {IERC721-approve}."
      },
      "balanceOf(address)": {
        "details": "See {IERC721-balanceOf}."
      },
      "getApproved(uint256)": {
        "details": "See {IERC721-getApproved}."
      },
      "isApprovedForAll(address,address)": {
        "details": "See {IERC721-isApprovedForAll}."
      },
      "name()": {
        "details": "See {IERC721Metadata-name}."
      },
      "owner()": {
        "details": "Returns the address of the current owner."
      },
      "ownerOf(uint256)": {
        "details": "See {IERC721-ownerOf}."
      },
      "renounceOwnership()": {
        "details": "Leaves the contract without owner. It will not be possible to call `onlyOwner` functions anymore. Can only be called by the current owner. NOTE: Renouncing ownership will leave the contract without an owner, thereby removing any functionality that is only available to the owner."
      },
      "safeTransferFrom(address,address,uint256)": {
        "details": "See {IERC721-safeTransferFrom}."
      },
      "safeTransferFrom(address,address,uint256,bytes)": {
        "details": "See {IERC721-safeTransferFrom}."
      },
      "setApprovalForAll(address,bool)": {
        "details": "See {IERC721-setApprovalForAll}."
      },
      "supportsInterface(bytes4)": {
        "details": "See {IERC165-supportsInterface}."
      },
      "symbol()": {
        "details": "See {IERC721Metadata-symbol}."
      },
      "tokenURI(uint256)": {
        "details": "See {IERC721Metadata-tokenURI}."
      },
      "transferFrom(address,address,uint256)": {
        "details": "See {IERC721-transferFrom}."
      },
      "transferOwnership(address)": {
        "details": "Transfers ownership of the contract to a new account (`newOwner`). Can only be called by the current owner."
      }
    },
    "version": 1
  },
  "userdoc": {
    "kind": "user",
    "methods": {},
    "version": 1
  }
}