{
  "contractName": "SubstratmContract",
  "abi": [
    {
      "inputs": [],
      "stateMutability": "nonpayable",
      "type": "constructor"
    },
    {
      "anonymous": false,
      "inputs": [
        {
          "indexed": true,
          "internalType": "address",
          "name": "account",
          "type": "address"
        },
        {
          "indexed": true,
          "internalType": "address",
          "name": "operator",
          "type": "address"
        },
        {
          "indexed": false,
          "internalType": "bool",
          "name": "approved",
          "type": "bool"
        }
      ],
      "name": "ApprovalForAll",
      "type": "event"
    },
    {
      "anonymous": false,
      "inputs": [
        {
          "indexed": true,
          "internalType": "address",
          "name": "owner",
          "type": "address"
        },
        {
          "indexed": true,
          "internalType": "uint256",
          "name": "code",
          "type": "uint256"
        },
        {
          "indexed": false,
          "internalType": "uint256",
          "name": "amount",
          "type": "uint256"
        }
      ],
      "name": "CoinMinted",
      "type": "event"
    },
    {
      "anonymous": false,
      "inputs": [
        {
          "indexed": true,
          "internalType": "address",
          "name": "previousOwner",
          "type": "address"
        },
        {
          "indexed": true,
          "internalType": "address",
          "name": "newOwner",
          "type": "address"
        }
      ],
      "name": "OwnershipTransferred",
      "type": "event"
    },
    {
      "anonymous": false,
      "inputs": [
        {
          "indexed": true,
          "internalType": "address",
          "name": "operator",
          "type": "address"
        },
        {
          "indexed": true,
          "internalType": "address",
          "name": "from",
          "type": "address"
        },
        {
          "indexed": true,
          "internalType": "address",
          "name": "to",
          "type": "address"
        },
        {
          "indexed": false,
          "internalType": "uint256[]",
          "name": "ids",
          "type": "uint256[]"
        },
        {
          "indexed": false,
          "internalType": "uint256[]",
          "name": "values",
          "type": "uint256[]"
        }
      ],
      "name": "TransferBatch",
      "type": "event"
    },
    {
      "anonymous": false,
      "inputs": [
        {
          "indexed": true,
          "internalType": "address",
          "name": "operator",
          "type": "address"
        },
        {
          "indexed": true,
          "internalType": "address",
          "name": "from",
          "type": "address"
        },
        {
          "indexed": true,
          "internalType": "address",
          "name": "to",
          "type": "address"
        },
        {
          "indexed": false,
          "internalType": "uint256",
          "name": "id",
          "type": "uint256"
        },
        {
          "indexed": false,
          "internalType": "uint256",
          "name": "value",
          "type": "uint256"
        }
      ],
      "name": "TransferSingle",
      "type": "event"
    },
    {
      "anonymous": false,
      "inputs": [
        {
          "indexed": false,
          "internalType": "string",
          "name": "value",
          "type": "string"
        },
        {
          "indexed": true,
          "internalType": "uint256",
          "name": "id",
          "type": "uint256"
        }
      ],
      "name": "URI",
      "type": "event"
    },
    {
      "inputs": [],
      "name": "MYCODE",
      "outputs": [
        {
          "internalType": "uint256",
          "name": "",
          "type": "uint256"
        }
      ],
      "stateMutability": "view",
      "type": "function"
    },
    {
      "inputs": [
        {
          "internalType": "address",
          "name": "account",
          "type": "address"
        },
        {
          "internalType": "uint256",
          "name": "id",
          "type": "uint256"
        }
      ],
      "name": "balanceOf",
      "outputs": [
        {
          "internalType": "uint256",
          "name": "",
          "type": "uint256"
        }
      ],
      "stateMutability": "view",
      "type": "function"
    },
    {
      "inputs": [
        {
          "internalType": "address[]",
          "name": "accounts",
          "type": "address[]"
        },
        {
          "internalType": "uint256[]",
          "name": "ids",
          "type": "uint256[]"
        }
      ],
      "name": "balanceOfBatch",
      "outputs": [
        {
          "internalType": "uint256[]",
          "name": "",
          "type": "uint256[]"
        }
      ],
      "stateMutability": "view",
      "type": "function"
    },
    {
      "inputs": [
        {
          "internalType": "address",
          "name": "account",
          "type": "address"
        },
        {
          "internalType": "address",
          "name": "operator",
          "type": "address"
        }
      ],
      "name": "isApprovedForAll",
      "outputs": [
        {
          "internalType": "bool",
          "name": "",
          "type": "bool"
        }
      ],
      "stateMutability": "view",
      "type": "function"
    },
    {
      "inputs": [],
      "name": "owner",
      "outputs": [
        {
          "internalType": "address",
          "name": "",
          "type": "address"
        }
      ],
      "stateMutability": "view",
      "type": "function"
    },
    {
      "inputs": [],
      "name": "renounceOwnership",
      "outputs": [],
      "stateMutability": "nonpayable",
      "type": "function"
    },
    {
      "inputs": [
        {
          "internalType": "address",
          "name": "from",
          "type": "address"
        },
        {
          "internalType": "address",
          "name": "to",
          "type": "address"
        },
        {
          "internalType": "uint256[]",
          "name": "ids",
          "type": "uint256[]"
        },
        {
          "internalType": "uint256[]",
          "name": "amounts",
          "type": "uint256[]"
        },
        {
          "internalType": "bytes",
          "name": "data",
          "type": "bytes"
        }
      ],
      "name": "safeBatchTransferFrom",
      "outputs": [],
      "stateMutability": "nonpayable",
      "type": "function"
    },
    {
      "inputs": [
        {
          "internalType": "address",
          "name": "from",
          "type": "address"
        },
        {
          "internalType": "address",
          "name": "to",
          "type": "address"
        },
        {
          "internalType": "uint256",
          "name": "id",
          "type": "uint256"
        },
        {
          "internalType": "uint256",
          "name": "amount",
          "type": "uint256"
        },
        {
          "internalType": "bytes",
          "name": "data",
          "type": "bytes"
        }
      ],
      "name": "safeTransferFrom",
      "outputs": [],
      "stateMutability": "nonpayable",
      "type": "function"
    },
    {
      "inputs": [
        {
          "internalType": "address",
          "name": "operator",
          "type": "address"
        },
        {
          "internalType": "bool",
          "name": "approved",
          "type": "bool"
        }
      ],
      "name": "setApprovalForAll",
      "outputs": [],
      "stateMutability": "nonpayable",
      "type": "function"
    },
    {
      "inputs": [
        {
          "internalType": "bytes4",
          "name": "interfaceId",
          "type": "bytes4"
        }
      ],
      "name": "supportsInterface",
      "outputs": [
        {
          "internalType": "bool",
          "name": "",
          "type": "bool"
        }
      ],
      "stateMutability": "view",
      "type": "function"
    },
    {
      "inputs": [
        {
          "internalType": "address",
          "name": "newOwner",
          "type": "address"
        }
      ],
      "name": "transferOwnership",
      "outputs": [],
      "stateMutability": "nonpayable",
      "type": "function"
    },
    {
      "inputs": [
        {
          "internalType": "uint256",
          "name": "",
          "type": "uint256"
        }
      ],
      "name": "uri",
      "outputs": [
        {
          "internalType": "string",
          "name": "",
          "type": "string"
        }
      ],
      "stateMutability": "view",
      "type": "function"
    },
    {
      "inputs": [
        {
          "internalType": "address",
          "name": "account",
          "type": "address"
        },
        {
          "internalType": "uint256",
          "name": "id",
          "type": "uint256"
        },
        {
          "internalType": "uint256",
          "name": "amount",
          "type": "uint256"
        }
      ],
      "name": "mint",
      "outputs": [],
      "stateMutability": "nonpayable",
      "type": "function"
    },
    {
      "inputs": [
        {
          "internalType": "address",
          "name": "account",
          "type": "address"
        },
        {
          "internalType": "uint256",
          "name": "id",
          "type": "uint256"
        },
        {
          "internalType": "uint256",
          "name": "amount",
          "type": "uint256"
        }
      ],
      "name": "burn",
      "outputs": [],
      "stateMutability": "nonpayable",
      "type": "function"
    }
  ],
  "bytecode": "0x60806040523480156200001157600080fd5b506040518060200160405280600081525062000033816200007f60201b60201c565b5062000054620000486200009b60201b60201c565b620000a360201b60201c565b6200007933607b6002604051806020016040528060008152506200016960201b60201c565b62000d59565b806002908051906020019062000097929190620005d4565b5050565b600033905090565b6000600360009054906101000a900473ffffffffffffffffffffffffffffffffffffffff16905081600360006101000a81548173ffffffffffffffffffffffffffffffffffffffff021916908373ffffffffffffffffffffffffffffffffffffffff1602179055508173ffffffffffffffffffffffffffffffffffffffff168173ffffffffffffffffffffffffffffffffffffffff167f8be0079c531659141344cd1fd0a4f28419497f9722a3daafe3b4186f6b6457e060405160405180910390a35050565b600073ffffffffffffffffffffffffffffffffffffffff168473ffffffffffffffffffffffffffffffffffffffff161415620001dc576040517f08c379a0000000000000000000000000000000000000000000000000000000008152600401620001d3906200070b565b60405180910390fd5b6000620001ee6200009b60201b60201c565b9050620002278160008762000209886200032e60201b60201c565b6200021a886200032e60201b60201c565b87620003af60201b60201c565b8260008086815260200190815260200160002060008773ffffffffffffffffffffffffffffffffffffffff1673ffffffffffffffffffffffffffffffffffffffff168152602001908152602001600020600082825462000288919062000766565b925050819055508473ffffffffffffffffffffffffffffffffffffffff16600073ffffffffffffffffffffffffffffffffffffffff168273ffffffffffffffffffffffffffffffffffffffff167fc3d58168c5ae7397731d063d5bbf3d657854427343f4c083240f7aacaa2d0f62878760405162000308929190620007d4565b60405180910390a46200032781600087878787620003b760201b60201c565b5050505050565b60606000600167ffffffffffffffff81111562000350576200034f62000801565b5b6040519080825280602002602001820160405280156200037f5781602001602082028036833780820191505090505b50905082816000815181106200039a576200039962000830565b5b60200260200101818152505080915050919050565b505050505050565b620003e38473ffffffffffffffffffffffffffffffffffffffff16620005c160201b62000cb81760201c565b15620005b9578373ffffffffffffffffffffffffffffffffffffffff1663f23a6e6187878686866040518663ffffffff1660e01b81526004016200042c95949392919062000948565b602060405180830381600087803b1580156200044757600080fd5b505af19250505080156200047b57506040513d601f19601f8201168201806040525081019062000478919062000a18565b60015b6200052d576200048a62000a57565b806308c379a01415620004ee5750620004a262000ab2565b80620004af5750620004f0565b806040517f08c379a0000000000000000000000000000000000000000000000000000000008152600401620004e5919062000ba0565b60405180910390fd5b505b6040517f08c379a0000000000000000000000000000000000000000000000000000000008152600401620005249062000c3a565b60405180910390fd5b63f23a6e6160e01b7bffffffffffffffffffffffffffffffffffffffffffffffffffffffff1916817bffffffffffffffffffffffffffffffffffffffffffffffffffffffff191614620005b7576040517f08c379a0000000000000000000000000000000000000000000000000000000008152600401620005ae9062000cd2565b60405180910390fd5b505b505050505050565b600080823b905060008111915050919050565b828054620005e29062000d23565b90600052602060002090601f01602090048101928262000606576000855562000652565b82601f106200062157805160ff191683800117855562000652565b8280016001018555821562000652579182015b828111156200065157825182559160200191906001019062000634565b5b50905062000661919062000665565b5090565b5b808211156200068057600081600090555060010162000666565b5090565b600082825260208201905092915050565b7f455243313135353a206d696e7420746f20746865207a65726f2061646472657360008201527f7300000000000000000000000000000000000000000000000000000000000000602082015250565b6000620006f360218362000684565b9150620007008262000695565b604082019050919050565b600060208201905081810360008301526200072681620006e4565b9050919050565b6000819050919050565b7f4e487b7100000000000000000000000000000000000000000000000000000000600052601160045260246000fd5b600062000773826200072d565b915062000780836200072d565b9250827fffffffffffffffffffffffffffffffffffffffffffffffffffffffffffffffff03821115620007b857620007b762000737565b5b828201905092915050565b620007ce816200072d565b82525050565b6000604082019050620007eb6000830185620007c3565b620007fa6020830184620007c3565b9392505050565b7f4e487b7100000000000000000000000000000000000000000000000000000000600052604160045260246000fd5b7f4e487b7100000000000000000000000000000000000000000000000000000000600052603260045260246000fd5b600073ffffffffffffffffffffffffffffffffffffffff82169050919050565b60006200088c826200085f565b9050919050565b6200089e816200087f565b82525050565b600081519050919050565b600082825260208201905092915050565b60005b83811015620008e0578082015181840152602081019050620008c3565b83811115620008f0576000848401525b50505050565b6000601f19601f8301169050919050565b60006200091482620008a4565b620009208185620008af565b935062000932818560208601620008c0565b6200093d81620008f6565b840191505092915050565b600060a0820190506200095f600083018862000893565b6200096e602083018762000893565b6200097d6040830186620007c3565b6200098c6060830185620007c3565b8181036080830152620009a0818462000907565b90509695505050505050565b6000604051905090565b600080fd5b60007fffffffff0000000000000000000000000000000000000000000000000000000082169050919050565b620009f281620009bb565b8114620009fe57600080fd5b50565b60008151905062000a1281620009e7565b92915050565b60006020828403121562000a315762000a30620009b6565b5b600062000a418482850162000a01565b91505092915050565b60008160e01c9050919050565b600060033d111562000a795760046000803e62000a7660005162000a4a565b90505b90565b62000a8782620008f6565b810181811067ffffffffffffffff8211171562000aa95762000aa862000801565b5b80604052505050565b600060443d101562000ac45762000b51565b62000ace620009ac565b60043d036004823e80513d602482011167ffffffffffffffff8211171562000af857505062000b51565b808201805167ffffffffffffffff81111562000b18575050505062000b51565b80602083010160043d03850181111562000b3757505050505062000b51565b62000b488260200185018662000a7c565b82955050505050505b90565b600081519050919050565b600062000b6c8262000b54565b62000b78818562000684565b935062000b8a818560208601620008c0565b62000b9581620008f6565b840191505092915050565b6000602082019050818103600083015262000bbc818462000b5f565b905092915050565b7f455243313135353a207472616e7366657220746f206e6f6e204552433131353560008201527f526563656976657220696d706c656d656e746572000000000000000000000000602082015250565b600062000c2260348362000684565b915062000c2f8262000bc4565b604082019050919050565b6000602082019050818103600083015262000c558162000c13565b9050919050565b7f455243313135353a204552433131353552656365697665722072656a6563746560008201527f6420746f6b656e73000000000000000000000000000000000000000000000000602082015250565b600062000cba60288362000684565b915062000cc78262000c5c565b604082019050919050565b6000602082019050818103600083015262000ced8162000cab565b9050919050565b7f4e487b7100000000000000000000000000000000000000000000000000000000600052602260045260246000fd5b6000600282049050600182168062000d3c57607f821691505b6020821081141562000d535762000d5262000cf4565b5b50919050565b6131f98062000d696000396000f3fe608060405234801561001057600080fd5b50600436106100e95760003560e01c8063715018a61161008c578063e985e9c511610066578063e985e9c514610248578063f242432a14610278578063f2fde38b14610294578063f5298aca146102b0576100e9565b8063715018a6146102045780638da5cb5b1461020e578063a22cb4651461022c576100e9565b8063156e29f6116100c8578063156e29f61461017e5780632eb2c2d61461019a5780634e1273f4146101b65780636a560f3c146101e6576100e9565b8062fdd58e146100ee57806301ffc9a71461011e5780630e89341c1461014e575b600080fd5b61010860048036038101906101039190611c44565b6102cc565b6040516101159190611c93565b60405180910390f35b61013860048036038101906101339190611d06565b610395565b6040516101459190611d4e565b60405180910390f35b61016860048036038101906101639190611d69565b610477565b6040516101759190611e2f565b60405180910390f35b61019860048036038101906101939190611e51565b61050b565b005b6101b460048036038101906101af91906120a1565b610602565b005b6101d060048036038101906101cb9190612233565b6106a3565b6040516101dd9190612369565b60405180910390f35b6101ee6107bc565b6040516101fb9190611c93565b60405180910390f35b61020c6107c1565b005b610216610849565b604051610223919061239a565b60405180910390f35b610246600480360381019061024191906123e1565b610873565b005b610262600480360381019061025d9190612421565b6109f4565b60405161026f9190611d4e565b60405180910390f35b610292600480360381019061028d9190612461565b610a88565b005b6102ae60048036038101906102a991906124f8565b610b29565b005b6102ca60048036038101906102c59190611e51565b610c21565b005b60008073ffffffffffffffffffffffffffffffffffffffff168373ffffffffffffffffffffffffffffffffffffffff16141561033d576040517f08c379a000000000000000000000000000000000000000000000000000000000815260040161033490612597565b60405180910390fd5b60008083815260200190815260200160002060008473ffffffffffffffffffffffffffffffffffffffff1673ffffffffffffffffffffffffffffffffffffffff16815260200190815260200160002054905092915050565b60007fd9b67a26000000000000000000000000000000000000000000000000000000007bffffffffffffffffffffffffffffffffffffffffffffffffffffffff1916827bffffffffffffffffffffffffffffffffffffffffffffffffffffffff1916148061046057507f0e89341c000000000000000000000000000000000000000000000000000000007bffffffffffffffffffffffffffffffffffffffffffffffffffffffff1916827bffffffffffffffffffffffffffffffffffffffffffffffffffffffff1916145b80610470575061046f82610ccb565b5b9050919050565b606060028054610486906125e6565b80601f01602080910402602001604051908101604052809291908181526020018280546104b2906125e6565b80156104ff5780601f106104d4576101008083540402835291602001916104ff565b820191906000526020600020905b8154815290600101906020018083116104e257829003601f168201915b50505050509050919050565b610513610d35565b73ffffffffffffffffffffffffffffffffffffffff16610531610849565b73ffffffffffffffffffffffffffffffffffffffff1614610587576040517f08c379a000000000000000000000000000000000000000000000000000000000815260040161057e90612664565b60405180910390fd5b818373ffffffffffffffffffffffffffffffffffffffff167f42f200ad9609650196d468a16843849f4b71d967123c6d24420dd3eb2b299b9c836040516105ce9190611c93565b60405180910390a36105fd83836005846105e891906126b3565b60405180602001604052806000815250610d3d565b505050565b61060a610d35565b73ffffffffffffffffffffffffffffffffffffffff168573ffffffffffffffffffffffffffffffffffffffff161480610650575061064f8561064a610d35565b6109f4565b5b61068f576040517f08c379a00000000000000000000000000000000000000000000000000000000081526004016106869061277f565b60405180910390fd5b61069c8585858585610ed3565b5050505050565b606081518351146106e9576040517f08c379a00000000000000000000000000000000000000000000000000000000081526004016106e090612811565b60405180910390fd5b6000835167ffffffffffffffff81111561070657610705611ea9565b5b6040519080825280602002602001820160405280156107345781602001602082028036833780820191505090505b50905060005b84518110156107b15761078185828151811061075957610758612831565b5b602002602001015185838151811061077457610773612831565b5b60200260200101516102cc565b82828151811061079457610793612831565b5b602002602001018181525050806107aa90612860565b905061073a565b508091505092915050565b607b81565b6107c9610d35565b73ffffffffffffffffffffffffffffffffffffffff166107e7610849565b73ffffffffffffffffffffffffffffffffffffffff161461083d576040517f08c379a000000000000000000000000000000000000000000000000000000000815260040161083490612664565b60405180910390fd5b61084760006111e7565b565b6000600360009054906101000a900473ffffffffffffffffffffffffffffffffffffffff16905090565b8173ffffffffffffffffffffffffffffffffffffffff16610892610d35565b73ffffffffffffffffffffffffffffffffffffffff1614156108e9576040517f08c379a00000000000000000000000000000000000000000000000000000000081526004016108e09061291b565b60405180910390fd5b80600160006108f6610d35565b73ffffffffffffffffffffffffffffffffffffffff1673ffffffffffffffffffffffffffffffffffffffff16815260200190815260200160002060008473ffffffffffffffffffffffffffffffffffffffff1673ffffffffffffffffffffffffffffffffffffffff16815260200190815260200160002060006101000a81548160ff0219169083151502179055508173ffffffffffffffffffffffffffffffffffffffff166109a3610d35565b73ffffffffffffffffffffffffffffffffffffffff167f17307eab39ab6107e8899845ad3d59bd9653f200f220920489ca2b5937696c31836040516109e89190611d4e565b60405180910390a35050565b6000600160008473ffffffffffffffffffffffffffffffffffffffff1673ffffffffffffffffffffffffffffffffffffffff16815260200190815260200160002060008373ffffffffffffffffffffffffffffffffffffffff1673ffffffffffffffffffffffffffffffffffffffff16815260200190815260200160002060009054906101000a900460ff16905092915050565b610a90610d35565b73ffffffffffffffffffffffffffffffffffffffff168573ffffffffffffffffffffffffffffffffffffffff161480610ad65750610ad585610ad0610d35565b6109f4565b5b610b15576040517f08c379a0000000000000000000000000000000000000000000000000000000008152600401610b0c906129ad565b60405180910390fd5b610b2285858585856112ad565b5050505050565b610b31610d35565b73ffffffffffffffffffffffffffffffffffffffff16610b4f610849565b73ffffffffffffffffffffffffffffffffffffffff1614610ba5576040517f08c379a0000000000000000000000000000000000000000000000000000000008152600401610b9c90612664565b60405180910390fd5b600073ffffffffffffffffffffffffffffffffffffffff168173ffffffffffffffffffffffffffffffffffffffff161415610c15576040517f08c379a0000000000000000000000000000000000000000000000000000000008152600401610c0c90612a3f565b60405180910390fd5b610c1e816111e7565b50565b8273ffffffffffffffffffffffffffffffffffffffff163373ffffffffffffffffffffffffffffffffffffffff1614610c5957600080fd5b818373ffffffffffffffffffffffffffffffffffffffff167f42f200ad9609650196d468a16843849f4b71d967123c6d24420dd3eb2b299b9c83604051610ca09190611c93565b60405180910390a3610cb383838361152f565b505050565b600080823b905060008111915050919050565b60007f01ffc9a7000000000000000000000000000000000000000000000000000000007bffffffffffffffffffffffffffffffffffffffffffffffffffffffff1916827bffffffffffffffffffffffffffffffffffffffffffffffffffffffff1916149050919050565b600033905090565b600073ffffffffffffffffffffffffffffffffffffffff168473ffffffffffffffffffffffffffffffffffffffff161415610dad576040517f08c379a0000000000000000000000000000000000000000000000000000000008152600401610da490612ad1565b60405180910390fd5b6000610db7610d35565b9050610dd881600087610dc98861174c565b610dd28861174c565b876117c6565b8260008086815260200190815260200160002060008773ffffffffffffffffffffffffffffffffffffffff1673ffffffffffffffffffffffffffffffffffffffff1681526020019081526020016000206000828254610e379190612af1565b925050819055508473ffffffffffffffffffffffffffffffffffffffff16600073ffffffffffffffffffffffffffffffffffffffff168273ffffffffffffffffffffffffffffffffffffffff167fc3d58168c5ae7397731d063d5bbf3d657854427343f4c083240f7aacaa2d0f628787604051610eb5929190612b47565b60405180910390a4610ecc816000878787876117ce565b5050505050565b8151835114610f17576040517f08c379a0000000000000000000000000000000000000000000000000000000008152600401610f0e90612be2565b60405180910390fd5b600073ffffffffffffffffffffffffffffffffffffffff168473ffffffffffffffffffffffffffffffffffffffff161415610f87576040517f08c379a0000000000000000000000000000000000000000000000000000000008152600401610f7e90612c74565b60405180910390fd5b6000610f91610d35565b9050610fa18187878787876117c6565b60005b8451811015611152576000858281518110610fc257610fc1612831565b5b602002602001015190506000858381518110610fe157610fe0612831565b5b60200260200101519050600080600084815260200190815260200160002060008b73ffffffffffffffffffffffffffffffffffffffff1673ffffffffffffffffffffffffffffffffffffffff16815260200190815260200160002054905081811015611082576040517f08c379a000000000000000000000000000000000000000000000000000000000815260040161107990612d06565b60405180910390fd5b81810360008085815260200190815260200160002060008c73ffffffffffffffffffffffffffffffffffffffff1673ffffffffffffffffffffffffffffffffffffffff168152602001908152602001600020819055508160008085815260200190815260200160002060008b73ffffffffffffffffffffffffffffffffffffffff1673ffffffffffffffffffffffffffffffffffffffff16815260200190815260200160002060008282546111379190612af1565b925050819055505050508061114b90612860565b9050610fa4565b508473ffffffffffffffffffffffffffffffffffffffff168673ffffffffffffffffffffffffffffffffffffffff168273ffffffffffffffffffffffffffffffffffffffff167f4a39dc06d4c0dbc64b70af90fd698a233a518aa5d07e595d983b8c0526c8f7fb87876040516111c9929190612d26565b60405180910390a46111df8187878787876119b5565b505050505050565b6000600360009054906101000a900473ffffffffffffffffffffffffffffffffffffffff16905081600360006101000a81548173ffffffffffffffffffffffffffffffffffffffff021916908373ffffffffffffffffffffffffffffffffffffffff1602179055508173ffffffffffffffffffffffffffffffffffffffff168173ffffffffffffffffffffffffffffffffffffffff167f8be0079c531659141344cd1fd0a4f28419497f9722a3daafe3b4186f6b6457e060405160405180910390a35050565b600073ffffffffffffffffffffffffffffffffffffffff168473ffffffffffffffffffffffffffffffffffffffff16141561131d576040517f08c379a000000000000000000000000000000000000000000000000000000000815260040161131490612c74565b60405180910390fd5b6000611327610d35565b90506113478187876113388861174c565b6113418861174c565b876117c6565b600080600086815260200190815260200160002060008873ffffffffffffffffffffffffffffffffffffffff1673ffffffffffffffffffffffffffffffffffffffff168152602001908152602001600020549050838110156113de576040517f08c379a00000000000000000000000000000000000000000000000000000000081526004016113d590612d06565b60405180910390fd5b83810360008087815260200190815260200160002060008973ffffffffffffffffffffffffffffffffffffffff1673ffffffffffffffffffffffffffffffffffffffff168152602001908152602001600020819055508360008087815260200190815260200160002060008873ffffffffffffffffffffffffffffffffffffffff1673ffffffffffffffffffffffffffffffffffffffff16815260200190815260200160002060008282546114939190612af1565b925050819055508573ffffffffffffffffffffffffffffffffffffffff168773ffffffffffffffffffffffffffffffffffffffff168373ffffffffffffffffffffffffffffffffffffffff167fc3d58168c5ae7397731d063d5bbf3d657854427343f4c083240f7aacaa2d0f628888604051611510929190612b47565b60405180910390a46115268288888888886117ce565b50505050505050565b600073ffffffffffffffffffffffffffffffffffffffff168373ffffffffffffffffffffffffffffffffffffffff16141561159f576040517f08c379a000000000000000000000000000000000000000000000000000000000815260040161159690612dcf565b60405180910390fd5b60006115a9610d35565b90506115d9818560006115bb8761174c565b6115c48761174c565b604051806020016040528060008152506117c6565b600080600085815260200190815260200160002060008673ffffffffffffffffffffffffffffffffffffffff1673ffffffffffffffffffffffffffffffffffffffff16815260200190815260200160002054905082811015611670576040517f08c379a000000000000000000000000000000000000000000000000000000000815260040161166790612e61565b60405180910390fd5b82810360008086815260200190815260200160002060008773ffffffffffffffffffffffffffffffffffffffff1673ffffffffffffffffffffffffffffffffffffffff16815260200190815260200160002081905550600073ffffffffffffffffffffffffffffffffffffffff168573ffffffffffffffffffffffffffffffffffffffff168373ffffffffffffffffffffffffffffffffffffffff167fc3d58168c5ae7397731d063d5bbf3d657854427343f4c083240f7aacaa2d0f62878760405161173d929190612b47565b60405180910390a45050505050565b60606000600167ffffffffffffffff81111561176b5761176a611ea9565b5b6040519080825280602002602001820160405280156117995781602001602082028036833780820191505090505b50905082816000815181106117b1576117b0612831565b5b60200260200101818152505080915050919050565b505050505050565b6117ed8473ffffffffffffffffffffffffffffffffffffffff16610cb8565b156119ad578373ffffffffffffffffffffffffffffffffffffffff1663f23a6e6187878686866040518663ffffffff1660e01b8152600401611833959493929190612ed6565b602060405180830381600087803b15801561184d57600080fd5b505af192505050801561187e57506040513d601f19601f8201168201806040525081019061187b9190612f45565b60015b6119245761188a612f7f565b806308c379a014156118e7575061189f612fa1565b806118aa57506118e9565b806040517f08c379a00000000000000000000000000000000000000000000000000000000081526004016118de9190611e2f565b60405180910390fd5b505b6040517f08c379a000000000000000000000000000000000000000000000000000000000815260040161191b906130a9565b60405180910390fd5b63f23a6e6160e01b7bffffffffffffffffffffffffffffffffffffffffffffffffffffffff1916817bffffffffffffffffffffffffffffffffffffffffffffffffffffffff1916146119ab576040517f08c379a00000000000000000000000000000000000000000000000000000000081526004016119a29061313b565b60405180910390fd5b505b505050505050565b6119d48473ffffffffffffffffffffffffffffffffffffffff16610cb8565b15611b94578373ffffffffffffffffffffffffffffffffffffffff1663bc197c8187878686866040518663ffffffff1660e01b8152600401611a1a95949392919061315b565b602060405180830381600087803b158015611a3457600080fd5b505af1925050508015611a6557506040513d601f19601f82011682018060405250810190611a629190612f45565b60015b611b0b57611a71612f7f565b806308c379a01415611ace5750611a86612fa1565b80611a915750611ad0565b806040517f08c379a0000000000000000000000000000000000000000000000000000000008152600401611ac59190611e2f565b60405180910390fd5b505b6040517f08c379a0000000000000000000000000000000000000000000000000000000008152600401611b02906130a9565b60405180910390fd5b63bc197c8160e01b7bffffffffffffffffffffffffffffffffffffffffffffffffffffffff1916817bffffffffffffffffffffffffffffffffffffffffffffffffffffffff191614611b92576040517f08c379a0000000000000000000000000000000000000000000000000000000008152600401611b899061313b565b60405180910390fd5b505b505050505050565b6000604051905090565b600080fd5b600080fd5b600073ffffffffffffffffffffffffffffffffffffffff82169050919050565b6000611bdb82611bb0565b9050919050565b611beb81611bd0565b8114611bf657600080fd5b50565b600081359050611c0881611be2565b92915050565b6000819050919050565b611c2181611c0e565b8114611c2c57600080fd5b50565b600081359050611c3e81611c18565b92915050565b60008060408385031215611c5b57611c5a611ba6565b5b6000611c6985828601611bf9565b9250506020611c7a85828601611c2f565b9150509250929050565b611c8d81611c0e565b82525050565b6000602082019050611ca86000830184611c84565b92915050565b60007fffffffff0000000000000000000000000000000000000000000000000000000082169050919050565b611ce381611cae565b8114611cee57600080fd5b50565b600081359050611d0081611cda565b92915050565b600060208284031215611d1c57611d1b611ba6565b5b6000611d2a84828501611cf1565b91505092915050565b60008115159050919050565b611d4881611d33565b82525050565b6000602082019050611d636000830184611d3f565b92915050565b600060208284031215611d7f57611d7e611ba6565b5b6000611d8d84828501611c2f565b91505092915050565b600081519050919050565b600082825260208201905092915050565b60005b83811015611dd0578082015181840152602081019050611db5565b83811115611ddf576000848401525b50505050565b6000601f19601f8301169050919050565b6000611e0182611d96565b611e0b8185611da1565b9350611e1b818560208601611db2565b611e2481611de5565b840191505092915050565b60006020820190508181036000830152611e498184611df6565b905092915050565b600080600060608486031215611e6a57611e69611ba6565b5b6000611e7886828701611bf9565b9350506020611e8986828701611c2f565b9250506040611e9a86828701611c2f565b9150509250925092565b600080fd5b7f4e487b7100000000000000000000000000000000000000000000000000000000600052604160045260246000fd5b611ee182611de5565b810181811067ffffffffffffffff82111715611f0057611eff611ea9565b5b80604052505050565b6000611f13611b9c565b9050611f1f8282611ed8565b919050565b600067ffffffffffffffff821115611f3f57611f3e611ea9565b5b602082029050602081019050919050565b600080fd5b6000611f68611f6384611f24565b611f09565b90508083825260208201905060208402830185811115611f8b57611f8a611f50565b5b835b81811015611fb45780611fa08882611c2f565b845260208401935050602081019050611f8d565b5050509392505050565b600082601f830112611fd357611fd2611ea4565b5b8135611fe3848260208601611f55565b91505092915050565b600080fd5b600067ffffffffffffffff82111561200c5761200b611ea9565b5b61201582611de5565b9050602081019050919050565b82818337600083830152505050565b600061204461203f84611ff1565b611f09565b9050828152602081018484840111156120605761205f611fec565b5b61206b848285612022565b509392505050565b600082601f83011261208857612087611ea4565b5b8135612098848260208601612031565b91505092915050565b600080600080600060a086880312156120bd576120bc611ba6565b5b60006120cb88828901611bf9565b95505060206120dc88828901611bf9565b945050604086013567ffffffffffffffff8111156120fd576120fc611bab565b5b61210988828901611fbe565b935050606086013567ffffffffffffffff81111561212a57612129611bab565b5b61213688828901611fbe565b925050608086013567ffffffffffffffff81111561215757612156611bab565b5b61216388828901612073565b9150509295509295909350565b600067ffffffffffffffff82111561218b5761218a611ea9565b5b602082029050602081019050919050565b60006121af6121aa84612170565b611f09565b905080838252602082019050602084028301858111156121d2576121d1611f50565b5b835b818110156121fb57806121e78882611bf9565b8452602084019350506020810190506121d4565b5050509392505050565b600082601f83011261221a57612219611ea4565b5b813561222a84826020860161219c565b91505092915050565b6000806040838503121561224a57612249611ba6565b5b600083013567ffffffffffffffff81111561226857612267611bab565b5b61227485828601612205565b925050602083013567ffffffffffffffff81111561229557612294611bab565b5b6122a185828601611fbe565b9150509250929050565b600081519050919050565b600082825260208201905092915050565b6000819050602082019050919050565b6122e081611c0e565b82525050565b60006122f283836122d7565b60208301905092915050565b6000602082019050919050565b6000612316826122ab565b61232081856122b6565b935061232b836122c7565b8060005b8381101561235c57815161234388826122e6565b975061234e836122fe565b92505060018101905061232f565b5085935050505092915050565b60006020820190508181036000830152612383818461230b565b905092915050565b61239481611bd0565b82525050565b60006020820190506123af600083018461238b565b92915050565b6123be81611d33565b81146123c957600080fd5b50565b6000813590506123db816123b5565b92915050565b600080604083850312156123f8576123f7611ba6565b5b600061240685828601611bf9565b9250506020612417858286016123cc565b9150509250929050565b6000806040838503121561243857612437611ba6565b5b600061244685828601611bf9565b925050602061245785828601611bf9565b9150509250929050565b600080600080600060a0868803121561247d5761247c611ba6565b5b600061248b88828901611bf9565b955050602061249c88828901611bf9565b94505060406124ad88828901611c2f565b93505060606124be88828901611c2f565b925050608086013567ffffffffffffffff8111156124df576124de611bab565b5b6124eb88828901612073565b9150509295509295909350565b60006020828403121561250e5761250d611ba6565b5b600061251c84828501611bf9565b91505092915050565b7f455243313135353a2062616c616e636520717565727920666f7220746865207a60008201527f65726f2061646472657373000000000000000000000000000000000000000000602082015250565b6000612581602b83611da1565b915061258c82612525565b604082019050919050565b600060208201905081810360008301526125b081612574565b9050919050565b7f4e487b7100000000000000000000000000000000000000000000000000000000600052602260045260246000fd5b600060028204905060018216806125fe57607f821691505b60208210811415612612576126116125b7565b5b50919050565b7f4f776e61626c653a2063616c6c6572206973206e6f7420746865206f776e6572600082015250565b600061264e602083611da1565b915061265982612618565b602082019050919050565b6000602082019050818103600083015261267d81612641565b9050919050565b7f4e487b7100000000000000000000000000000000000000000000000000000000600052601160045260246000fd5b60006126be82611c0e565b91506126c983611c0e565b9250817fffffffffffffffffffffffffffffffffffffffffffffffffffffffffffffffff048311821515161561270257612701612684565b5b828202905092915050565b7f455243313135353a207472616e736665722063616c6c6572206973206e6f742060008201527f6f776e6572206e6f7220617070726f7665640000000000000000000000000000602082015250565b6000612769603283611da1565b91506127748261270d565b604082019050919050565b600060208201905081810360008301526127988161275c565b9050919050565b7f455243313135353a206163636f756e747320616e6420696473206c656e67746860008201527f206d69736d617463680000000000000000000000000000000000000000000000602082015250565b60006127fb602983611da1565b91506128068261279f565b604082019050919050565b6000602082019050818103600083015261282a816127ee565b9050919050565b7f4e487b7100000000000000000000000000000000000000000000000000000000600052603260045260246000fd5b600061286b82611c0e565b91507fffffffffffffffffffffffffffffffffffffffffffffffffffffffffffffffff82141561289e5761289d612684565b5b600182019050919050565b7f455243313135353a2073657474696e6720617070726f76616c2073746174757360008201527f20666f722073656c660000000000000000000000000000000000000000000000602082015250565b6000612905602983611da1565b9150612910826128a9565b604082019050919050565b60006020820190508181036000830152612934816128f8565b9050919050565b7f455243313135353a2063616c6c6572206973206e6f74206f776e6572206e6f7260008201527f20617070726f7665640000000000000000000000000000000000000000000000602082015250565b6000612997602983611da1565b91506129a28261293b565b604082019050919050565b600060208201905081810360008301526129c68161298a565b9050919050565b7f4f776e61626c653a206e6577206f776e657220697320746865207a65726f206160008201527f6464726573730000000000000000000000000000000000000000000000000000602082015250565b6000612a29602683611da1565b9150612a34826129cd565b604082019050919050565b60006020820190508181036000830152612a5881612a1c565b9050919050565b7f455243313135353a206d696e7420746f20746865207a65726f2061646472657360008201527f7300000000000000000000000000000000000000000000000000000000000000602082015250565b6000612abb602183611da1565b9150612ac682612a5f565b604082019050919050565b60006020820190508181036000830152612aea81612aae565b9050919050565b6000612afc82611c0e565b9150612b0783611c0e565b9250827fffffffffffffffffffffffffffffffffffffffffffffffffffffffffffffffff03821115612b3c57612b3b612684565b5b828201905092915050565b6000604082019050612b5c6000830185611c84565b612b696020830184611c84565b9392505050565b7f455243313135353a2069647320616e6420616d6f756e7473206c656e6774682060008201527f6d69736d61746368000000000000000000000000000000000000000000000000602082015250565b6000612bcc602883611da1565b9150612bd782612b70565b604082019050919050565b60006020820190508181036000830152612bfb81612bbf565b9050919050565b7f455243313135353a207472616e7366657220746f20746865207a65726f20616460008201527f6472657373000000000000000000000000000000000000000000000000000000602082015250565b6000612c5e602583611da1565b9150612c6982612c02565b604082019050919050565b60006020820190508181036000830152612c8d81612c51565b9050919050565b7f455243313135353a20696e73756666696369656e742062616c616e636520666f60008201527f72207472616e7366657200000000000000000000000000000000000000000000602082015250565b6000612cf0602a83611da1565b9150612cfb82612c94565b604082019050919050565b60006020820190508181036000830152612d1f81612ce3565b9050919050565b60006040820190508181036000830152612d40818561230b565b90508181036020830152612d54818461230b565b90509392505050565b7f455243313135353a206275726e2066726f6d20746865207a65726f206164647260008201527f6573730000000000000000000000000000000000000000000000000000000000602082015250565b6000612db9602383611da1565b9150612dc482612d5d565b604082019050919050565b60006020820190508181036000830152612de881612dac565b9050919050565b7f455243313135353a206275726e20616d6f756e7420657863656564732062616c60008201527f616e636500000000000000000000000000000000000000000000000000000000602082015250565b6000612e4b602483611da1565b9150612e5682612def565b604082019050919050565b60006020820190508181036000830152612e7a81612e3e565b9050919050565b600081519050919050565b600082825260208201905092915050565b6000612ea882612e81565b612eb28185612e8c565b9350612ec2818560208601611db2565b612ecb81611de5565b840191505092915050565b600060a082019050612eeb600083018861238b565b612ef8602083018761238b565b612f056040830186611c84565b612f126060830185611c84565b8181036080830152612f248184612e9d565b90509695505050505050565b600081519050612f3f81611cda565b92915050565b600060208284031215612f5b57612f5a611ba6565b5b6000612f6984828501612f30565b91505092915050565b60008160e01c9050919050565b600060033d1115612f9e5760046000803e612f9b600051612f72565b90505b90565b600060443d1015612fb157613034565b612fb9611b9c565b60043d036004823e80513d602482011167ffffffffffffffff82111715612fe1575050613034565b808201805167ffffffffffffffff811115612fff5750505050613034565b80602083010160043d03850181111561301c575050505050613034565b61302b82602001850186611ed8565b82955050505050505b90565b7f455243313135353a207472616e7366657220746f206e6f6e204552433131353560008201527f526563656976657220696d706c656d656e746572000000000000000000000000602082015250565b6000613093603483611da1565b915061309e82613037565b604082019050919050565b600060208201905081810360008301526130c281613086565b9050919050565b7f455243313135353a204552433131353552656365697665722072656a6563746560008201527f6420746f6b656e73000000000000000000000000000000000000000000000000602082015250565b6000613125602883611da1565b9150613130826130c9565b604082019050919050565b6000602082019050818103600083015261315481613118565b9050919050565b600060a082019050613170600083018861238b565b61317d602083018761238b565b818103604083015261318f818661230b565b905081810360608301526131a3818561230b565b905081810360808301526131b78184612e9d565b9050969550505050505056fea264697066735822122058fb8d9be3f0691725f0eaffbcb376ce0d91b9495a3c53966ab449658719c7db64736f6c63430008090033",
  "immutableReferences": {},
  "source": "// SPDX-License-Identifier: GPL-3.0\npragma solidity ^0.8.0;\n \n//import \"https://github.com/OpenZeppelin/openzeppelin-contracts/blob/master/contracts/token/ERC1155/ERC1155.sol\";\n//import \"https://github.com/OpenZeppelin/openzeppelin-contracts/blob/master/contracts/access/Ownable.sol\";\n\n\nimport \"@openzeppelin/contracts/token/ERC1155/ERC1155.sol\";\nimport \"@openzeppelin/contracts/access/Ownable.sol\";\n\n\n\ncontract SubstratmContract is ERC1155, Ownable {\n\n    uint256 public constant MYCODE=123; \n    event CoinMinted (\n            address indexed owner,\n            uint256 indexed code,\n            uint256 amount\n    );\n    \n    \n    constructor() ERC1155(\"\"){\n        _mint(msg.sender, MYCODE, 2, \"\"); \n        \n    }\n    \n    function mint(address account,uint256 id,uint256 amount) public onlyOwner {\n        emit CoinMinted(account, id, amount );\n        _mint(account, id, amount * 5, \"\");\n        \n    }\n        \n        \n    function burn(address account,uint256 id,uint256 amount) public\n    {\n        require(msg.sender == account);\n        emit CoinMinted(account, id, amount );\n        _burn(account,id, amount);\n    }\n\n}\n",
  "sourcePath": "C:\\code\\substratm\\truffle\\contracts\\substratm.sol",
  "compiler": {
    "name": "solc",
    "version": "0.8.9+commit.e5eed63a.Emscripten.clang"
  },
  "schemaVersion": "3.4.3",
  "updatedAt": "2021-11-28T22:37:23.571Z",
  "devdoc": {
    "kind": "dev",
    "methods": {
      "balanceOf(address,uint256)": {
        "details": "See {IERC1155-balanceOf}. Requirements: - `account` cannot be the zero address."
      },
      "balanceOfBatch(address[],uint256[])": {
        "details": "See {IERC1155-balanceOfBatch}. Requirements: - `accounts` and `ids` must have the same length."
      },
      "isApprovedForAll(address,address)": {
        "details": "See {IERC1155-isApprovedForAll}."
      },
      "owner()": {
        "details": "Returns the address of the current owner."
      },
      "renounceOwnership()": {
        "details": "Leaves the contract without owner. It will not be possible to call `onlyOwner` functions anymore. Can only be called by the current owner. NOTE: Renouncing ownership will leave the contract without an owner, thereby removing any functionality that is only available to the owner."
      },
      "safeBatchTransferFrom(address,address,uint256[],uint256[],bytes)": {
        "details": "See {IERC1155-safeBatchTransferFrom}."
      },
      "safeTransferFrom(address,address,uint256,uint256,bytes)": {
        "details": "See {IERC1155-safeTransferFrom}."
      },
      "setApprovalForAll(address,bool)": {
        "details": "See {IERC1155-setApprovalForAll}."
      },
      "supportsInterface(bytes4)": {
        "details": "See {IERC165-supportsInterface}."
      },
      "transferOwnership(address)": {
        "details": "Transfers ownership of the contract to a new account (`newOwner`). Can only be called by the current owner."
      },
      "uri(uint256)": {
        "details": "See {IERC1155MetadataURI-uri}. This implementation returns the same URI for *all* token types. It relies on the token type ID substitution mechanism https://eips.ethereum.org/EIPS/eip-1155#metadata[defined in the EIP]. Clients calling this function must replace the `\\{id\\}` substring with the actual token type ID."
      }
    },
    "version": 1
  },
  "userdoc": {
    "kind": "user",
    "methods": {},
    "version": 1
  }
}