{
  "contractName": "SubstratmNFT",
  "abi": [
    {
      "inputs": [],
      "stateMutability": "nonpayable",
      "type": "constructor"
    },
    {
      "anonymous": false,
      "inputs": [
        {
          "indexed": true,
          "internalType": "address",
          "name": "owner",
          "type": "address"
        },
        {
          "indexed": true,
          "internalType": "address",
          "name": "approved",
          "type": "address"
        },
        {
          "indexed": true,
          "internalType": "uint256",
          "name": "tokenId",
          "type": "uint256"
        }
      ],
      "name": "Approval",
      "type": "event"
    },
    {
      "anonymous": false,
      "inputs": [
        {
          "indexed": true,
          "internalType": "address",
          "name": "owner",
          "type": "address"
        },
        {
          "indexed": true,
          "internalType": "address",
          "name": "operator",
          "type": "address"
        },
        {
          "indexed": false,
          "internalType": "bool",
          "name": "approved",
          "type": "bool"
        }
      ],
      "name": "ApprovalForAll",
      "type": "event"
    },
    {
      "anonymous": false,
      "inputs": [
        {
          "indexed": true,
          "internalType": "address",
          "name": "previousOwner",
          "type": "address"
        },
        {
          "indexed": true,
          "internalType": "address",
          "name": "newOwner",
          "type": "address"
        }
      ],
      "name": "OwnershipTransferred",
      "type": "event"
    },
    {
      "anonymous": false,
      "inputs": [
        {
          "indexed": true,
          "internalType": "address",
          "name": "from",
          "type": "address"
        },
        {
          "indexed": true,
          "internalType": "address",
          "name": "to",
          "type": "address"
        },
        {
          "indexed": true,
          "internalType": "uint256",
          "name": "tokenId",
          "type": "uint256"
        }
      ],
      "name": "Transfer",
      "type": "event"
    },
    {
      "inputs": [
        {
          "internalType": "address",
          "name": "to",
          "type": "address"
        },
        {
          "internalType": "uint256",
          "name": "tokenId",
          "type": "uint256"
        }
      ],
      "name": "approve",
      "outputs": [],
      "stateMutability": "nonpayable",
      "type": "function"
    },
    {
      "inputs": [
        {
          "internalType": "address",
          "name": "owner",
          "type": "address"
        }
      ],
      "name": "balanceOf",
      "outputs": [
        {
          "internalType": "uint256",
          "name": "",
          "type": "uint256"
        }
      ],
      "stateMutability": "view",
      "type": "function"
    },
    {
      "inputs": [
        {
          "internalType": "uint256",
          "name": "tokenId",
          "type": "uint256"
        }
      ],
      "name": "getApproved",
      "outputs": [
        {
          "internalType": "address",
          "name": "",
          "type": "address"
        }
      ],
      "stateMutability": "view",
      "type": "function"
    },
    {
      "inputs": [
        {
          "internalType": "address",
          "name": "owner",
          "type": "address"
        },
        {
          "internalType": "address",
          "name": "operator",
          "type": "address"
        }
      ],
      "name": "isApprovedForAll",
      "outputs": [
        {
          "internalType": "bool",
          "name": "",
          "type": "bool"
        }
      ],
      "stateMutability": "view",
      "type": "function"
    },
    {
      "inputs": [],
      "name": "name",
      "outputs": [
        {
          "internalType": "string",
          "name": "",
          "type": "string"
        }
      ],
      "stateMutability": "view",
      "type": "function"
    },
    {
      "inputs": [],
      "name": "owner",
      "outputs": [
        {
          "internalType": "address",
          "name": "",
          "type": "address"
        }
      ],
      "stateMutability": "view",
      "type": "function"
    },
    {
      "inputs": [
        {
          "internalType": "uint256",
          "name": "tokenId",
          "type": "uint256"
        }
      ],
      "name": "ownerOf",
      "outputs": [
        {
          "internalType": "address",
          "name": "",
          "type": "address"
        }
      ],
      "stateMutability": "view",
      "type": "function"
    },
    {
      "inputs": [
        {
          "internalType": "uint256",
          "name": "",
          "type": "uint256"
        }
      ],
      "name": "profileIdToWallet",
      "outputs": [
        {
          "internalType": "address",
          "name": "",
          "type": "address"
        }
      ],
      "stateMutability": "view",
      "type": "function"
    },
    {
      "inputs": [
        {
          "internalType": "address",
          "name": "",
          "type": "address"
        }
      ],
      "name": "profiles",
      "outputs": [
        {
          "internalType": "string",
          "name": "twitterHandle",
          "type": "string"
        },
        {
          "internalType": "uint256",
          "name": "tokenId",
          "type": "uint256"
        }
      ],
      "stateMutability": "view",
      "type": "function"
    },
    {
      "inputs": [],
      "name": "renounceOwnership",
      "outputs": [],
      "stateMutability": "nonpayable",
      "type": "function"
    },
    {
      "inputs": [
        {
          "internalType": "address",
          "name": "from",
          "type": "address"
        },
        {
          "internalType": "address",
          "name": "to",
          "type": "address"
        },
        {
          "internalType": "uint256",
          "name": "tokenId",
          "type": "uint256"
        }
      ],
      "name": "safeTransferFrom",
      "outputs": [],
      "stateMutability": "nonpayable",
      "type": "function"
    },
    {
      "inputs": [
        {
          "internalType": "address",
          "name": "from",
          "type": "address"
        },
        {
          "internalType": "address",
          "name": "to",
          "type": "address"
        },
        {
          "internalType": "uint256",
          "name": "tokenId",
          "type": "uint256"
        },
        {
          "internalType": "bytes",
          "name": "_data",
          "type": "bytes"
        }
      ],
      "name": "safeTransferFrom",
      "outputs": [],
      "stateMutability": "nonpayable",
      "type": "function"
    },
    {
      "inputs": [
        {
          "internalType": "address",
          "name": "operator",
          "type": "address"
        },
        {
          "internalType": "bool",
          "name": "approved",
          "type": "bool"
        }
      ],
      "name": "setApprovalForAll",
      "outputs": [],
      "stateMutability": "nonpayable",
      "type": "function"
    },
    {
      "inputs": [
        {
          "internalType": "bytes4",
          "name": "interfaceId",
          "type": "bytes4"
        }
      ],
      "name": "supportsInterface",
      "outputs": [
        {
          "internalType": "bool",
          "name": "",
          "type": "bool"
        }
      ],
      "stateMutability": "view",
      "type": "function"
    },
    {
      "inputs": [],
      "name": "symbol",
      "outputs": [
        {
          "internalType": "string",
          "name": "",
          "type": "string"
        }
      ],
      "stateMutability": "view",
      "type": "function"
    },
    {
      "inputs": [
        {
          "internalType": "uint256",
          "name": "tokenId",
          "type": "uint256"
        }
      ],
      "name": "tokenURI",
      "outputs": [
        {
          "internalType": "string",
          "name": "",
          "type": "string"
        }
      ],
      "stateMutability": "view",
      "type": "function"
    },
    {
      "inputs": [
        {
          "internalType": "address",
          "name": "from",
          "type": "address"
        },
        {
          "internalType": "address",
          "name": "to",
          "type": "address"
        },
        {
          "internalType": "uint256",
          "name": "tokenId",
          "type": "uint256"
        }
      ],
      "name": "transferFrom",
      "outputs": [],
      "stateMutability": "nonpayable",
      "type": "function"
    },
    {
      "inputs": [
        {
          "internalType": "address",
          "name": "newOwner",
          "type": "address"
        }
      ],
      "name": "transferOwnership",
      "outputs": [],
      "stateMutability": "nonpayable",
      "type": "function"
    },
    {
      "inputs": [
        {
          "internalType": "address",
          "name": "",
          "type": "address"
        }
      ],
      "name": "walletToProfileId",
      "outputs": [
        {
          "internalType": "uint256",
          "name": "",
          "type": "uint256"
        }
      ],
      "stateMutability": "view",
      "type": "function"
    },
    {
      "inputs": [
        {
          "internalType": "uint256",
          "name": "profileId",
          "type": "uint256"
        }
      ],
      "name": "getProfileMetadata",
      "outputs": [
        {
          "components": [
            {
              "internalType": "string",
              "name": "twitterHandle",
              "type": "string"
            },
            {
              "internalType": "uint256",
              "name": "tokenId",
              "type": "uint256"
            }
          ],
          "internalType": "struct SubstratmNFT.Profile",
          "name": "",
          "type": "tuple"
        }
      ],
      "stateMutability": "view",
      "type": "function"
    },
    {
      "inputs": [
        {
          "internalType": "address",
          "name": "userAddress",
          "type": "address"
        },
        {
          "internalType": "string",
          "name": "twitterHandle",
          "type": "string"
        }
      ],
      "name": "updateSubstratmProfile",
      "outputs": [],
      "stateMutability": "nonpayable",
      "type": "function"
    },
    {
      "inputs": [
        {
          "internalType": "string",
          "name": "baseURI_",
          "type": "string"
        }
      ],
      "name": "setBaseURI",
      "outputs": [],
      "stateMutability": "nonpayable",
      "type": "function"
    },
    {
      "inputs": [
        {
          "internalType": "string",
          "name": "twitterHandle",
          "type": "string"
        }
      ],
      "name": "requestToMintNewSubstratmProfileNFT",
      "outputs": [],
      "stateMutability": "nonpayable",
      "type": "function"
    },
    {
      "inputs": [],
      "name": "readTwitterHandleForGivenAddress",
      "outputs": [
        {
          "internalType": "string",
          "name": "",
          "type": "string"
        }
      ],
      "stateMutability": "view",
      "type": "function"
    },
    {
      "inputs": [
        {
          "internalType": "address",
          "name": "userAddress",
          "type": "address"
        }
      ],
      "name": "nftExistsForAccount",
      "outputs": [
        {
          "internalType": "bool",
          "name": "",
          "type": "bool"
        }
      ],
      "stateMutability": "view",
      "type": "function"
    },
    {
      "inputs": [
        {
          "internalType": "uint256",
          "name": "profileId",
          "type": "uint256"
        },
        {
          "internalType": "string",
          "name": "_profileURI",
          "type": "string"
        }
      ],
      "name": "setTokenURI",
      "outputs": [],
      "stateMutability": "nonpayable",
      "type": "function"
    }
  ],
  "bytecode": "0x60806040523480156200001157600080fd5b506040518060400160405280600c81526020017f53756273747261746d4e465400000000000000000000000000000000000000008152506040518060400160405280600581526020017f5342535452000000000000000000000000000000000000000000000000000000815250816000908051906020019062000096929190620001ae565b508060019080519060200190620000af929190620001ae565b505050620000d2620000c6620000e060201b60201c565b620000e860201b60201c565b6000600d81905550620002c3565b600033905090565b6000600760009054906101000a900473ffffffffffffffffffffffffffffffffffffffff16905081600760006101000a81548173ffffffffffffffffffffffffffffffffffffffff021916908373ffffffffffffffffffffffffffffffffffffffff1602179055508173ffffffffffffffffffffffffffffffffffffffff168173ffffffffffffffffffffffffffffffffffffffff167f8be0079c531659141344cd1fd0a4f28419497f9722a3daafe3b4186f6b6457e060405160405180910390a35050565b828054620001bc906200028d565b90600052602060002090601f016020900481019282620001e057600085556200022c565b82601f10620001fb57805160ff19168380011785556200022c565b828001600101855582156200022c579182015b828111156200022b5782518255916020019190600101906200020e565b5b5090506200023b91906200023f565b5090565b5b808211156200025a57600081600090555060010162000240565b5090565b7f4e487b7100000000000000000000000000000000000000000000000000000000600052602260045260246000fd5b60006002820490506001821680620002a657607f821691505b60208210811415620002bd57620002bc6200025e565b5b50919050565b613b0280620002d36000396000f3fe608060405234801561001057600080fd5b506004361061018e5760003560e01c80638512fa31116100de578063bbe1562711610097578063e985e9c511610071578063e985e9c5146104a4578063ea42b1a3146104d4578063f2fde38b146104f2578063f8019c5e1461050e5761018e565b8063bbe1562714610413578063c73a9f8714610444578063c87b56dd146104745761018e565b80638512fa31146103535780638da5cb5b1461038357806395d89b41146103a15780639994f8f5146103bf578063a22cb465146103db578063b88d4fde146103f75761018e565b806323b872dd1161014b57806355f804b31161012557806355f804b3146102cd5780636352211e146102e957806370a0823114610319578063715018a6146103495761018e565b806323b872dd14610265578063397368d61461028157806342842e0e146102b15761018e565b8063013e2fce1461019357806301ffc9a7146101af57806306fdde03146101df578063081812fc146101fd578063095ea7b31461022d578063162094c414610249575b600080fd5b6101ad60048036038101906101a89190612635565b61053e565b005b6101c960048036038101906101c491906126d6565b6106fe565b6040516101d6919061271e565b60405180910390f35b6101e76107e0565b6040516101f491906127c1565b60405180910390f35b61021760048036038101906102129190612819565b610872565b6040516102249190612887565b60405180910390f35b610247600480360381019061024291906128ce565b6108f7565b005b610263600480360381019061025e919061290e565b610a0f565b005b61027f600480360381019061027a919061296a565b610a6d565b005b61029b600480360381019061029691906129bd565b610acd565b6040516102a8919061271e565b60405180910390f35b6102cb60048036038101906102c6919061296a565b610b19565b005b6102e760048036038101906102e29190612635565b610b39565b005b61030360048036038101906102fe9190612819565b610bcf565b6040516103109190612887565b60405180910390f35b610333600480360381019061032e91906129bd565b610c81565b60405161034091906129f9565b60405180910390f35b610351610d39565b005b61036d60048036038101906103689190612819565b610dc1565b60405161037a9190612887565b60405180910390f35b61038b610df4565b6040516103989190612887565b60405180910390f35b6103a9610e1e565b6040516103b691906127c1565b60405180910390f35b6103d960048036038101906103d49190612a14565b610eb0565b005b6103f560048036038101906103f09190612a9c565b610fa1565b005b610411600480360381019061040c9190612b7d565b611122565b005b61042d600480360381019061042891906129bd565b611184565b60405161043b929190612c00565b60405180910390f35b61045e600480360381019061045991906129bd565b611230565b60405161046b91906129f9565b60405180910390f35b61048e60048036038101906104899190612819565b611248565b60405161049b91906127c1565b60405180910390f35b6104be60048036038101906104b99190612c30565b61139a565b6040516104cb919061271e565b60405180910390f35b6104dc61142e565b6040516104e991906127c1565b60405180910390f35b61050c600480360381019061050791906129bd565b611507565b005b61052860048036038101906105239190612819565b6115ff565b6040516105359190612d06565b60405180910390f35b600061055061054b611727565b610acd565b610628576001600d546105639190612d57565b600d81905550600d549050806009600061057b611727565b73ffffffffffffffffffffffffffffffffffffffff1673ffffffffffffffffffffffffffffffffffffffff168152602001908152602001600020819055506105c1611727565b600a600083815260200190815260200160002060006101000a81548173ffffffffffffffffffffffffffffffffffffffff021916908373ffffffffffffffffffffffffffffffffffffffff16021790555061062361061d611727565b8261172f565b610675565b600b6000610634611727565b73ffffffffffffffffffffffffffffffffffffffff1673ffffffffffffffffffffffffffffffffffffffff1681526020019081526020016000206001015490505b604051806040016040528083815260200182815250600b6000610696611727565b73ffffffffffffffffffffffffffffffffffffffff1673ffffffffffffffffffffffffffffffffffffffff16815260200190815260200160002060008201518160000190805190602001906106ec92919061241e565b50602082015181600101559050505050565b60007f80ac58cd000000000000000000000000000000000000000000000000000000007bffffffffffffffffffffffffffffffffffffffffffffffffffffffff1916827bffffffffffffffffffffffffffffffffffffffffffffffffffffffff191614806107c957507f5b5e139f000000000000000000000000000000000000000000000000000000007bffffffffffffffffffffffffffffffffffffffffffffffffffffffff1916827bffffffffffffffffffffffffffffffffffffffffffffffffffffffff1916145b806107d957506107d88261174d565b5b9050919050565b6060600080546107ef90612ddc565b80601f016020809104026020016040519081016040528092919081815260200182805461081b90612ddc565b80156108685780601f1061083d57610100808354040283529160200191610868565b820191906000526020600020905b81548152906001019060200180831161084b57829003601f168201915b5050505050905090565b600061087d826117b7565b6108bc576040517f08c379a00000000000000000000000000000000000000000000000000000000081526004016108b390612e80565b60405180910390fd5b6004600083815260200190815260200160002060009054906101000a900473ffffffffffffffffffffffffffffffffffffffff169050919050565b600061090282610bcf565b90508073ffffffffffffffffffffffffffffffffffffffff168373ffffffffffffffffffffffffffffffffffffffff161415610973576040517f08c379a000000000000000000000000000000000000000000000000000000000815260040161096a90612f12565b60405180910390fd5b8073ffffffffffffffffffffffffffffffffffffffff16610992611727565b73ffffffffffffffffffffffffffffffffffffffff1614806109c157506109c0816109bb611727565b61139a565b5b610a00576040517f08c379a00000000000000000000000000000000000000000000000000000000081526004016109f790612fa4565b60405180910390fd5b610a0a8383611823565b505050565b610a20610a1a611727565b836118dc565b610a5f576040517f08c379a0000000000000000000000000000000000000000000000000000000008152600401610a5690613036565b60405180910390fd5b610a6982826119ba565b5050565b610a7e610a78611727565b826118dc565b610abd576040517f08c379a0000000000000000000000000000000000000000000000000000000008152600401610ab490613036565b60405180910390fd5b610ac8838383611a2e565b505050565b600080600960008473ffffffffffffffffffffffffffffffffffffffff1673ffffffffffffffffffffffffffffffffffffffff1681526020019081526020016000205414159050919050565b610b3483838360405180602001604052806000815250611122565b505050565b610b41611727565b73ffffffffffffffffffffffffffffffffffffffff16610b5f610df4565b73ffffffffffffffffffffffffffffffffffffffff1614610bb5576040517f08c379a0000000000000000000000000000000000000000000000000000000008152600401610bac906130a2565b60405180910390fd5b8060089080519060200190610bcb92919061241e565b5050565b6000806002600084815260200190815260200160002060009054906101000a900473ffffffffffffffffffffffffffffffffffffffff169050600073ffffffffffffffffffffffffffffffffffffffff168173ffffffffffffffffffffffffffffffffffffffff161415610c78576040517f08c379a0000000000000000000000000000000000000000000000000000000008152600401610c6f90613134565b60405180910390fd5b80915050919050565b60008073ffffffffffffffffffffffffffffffffffffffff168273ffffffffffffffffffffffffffffffffffffffff161415610cf2576040517f08c379a0000000000000000000000000000000000000000000000000000000008152600401610ce9906131c6565b60405180910390fd5b600360008373ffffffffffffffffffffffffffffffffffffffff1673ffffffffffffffffffffffffffffffffffffffff168152602001908152602001600020549050919050565b610d41611727565b73ffffffffffffffffffffffffffffffffffffffff16610d5f610df4565b73ffffffffffffffffffffffffffffffffffffffff1614610db5576040517f08c379a0000000000000000000000000000000000000000000000000000000008152600401610dac906130a2565b60405180910390fd5b610dbf6000611c8a565b565b600a6020528060005260406000206000915054906101000a900473ffffffffffffffffffffffffffffffffffffffff1681565b6000600760009054906101000a900473ffffffffffffffffffffffffffffffffffffffff16905090565b606060018054610e2d90612ddc565b80601f0160208091040260200160405190810160405280929190818152602001828054610e5990612ddc565b8015610ea65780601f10610e7b57610100808354040283529160200191610ea6565b820191906000526020600020905b815481529060010190602001808311610e8957829003601f168201915b5050505050905090565b610f00610ebb611727565b600960008573ffffffffffffffffffffffffffffffffffffffff1673ffffffffffffffffffffffffffffffffffffffff168152602001908152602001600020546118dc565b610f3f576040517f08c379a0000000000000000000000000000000000000000000000000000000008152600401610f3690613258565b60405180910390fd5b80600b6000610f4c611727565b73ffffffffffffffffffffffffffffffffffffffff1673ffffffffffffffffffffffffffffffffffffffff1681526020019081526020016000206000019080519060200190610f9c92919061241e565b505050565b610fa9611727565b73ffffffffffffffffffffffffffffffffffffffff168273ffffffffffffffffffffffffffffffffffffffff161415611017576040517f08c379a000000000000000000000000000000000000000000000000000000000815260040161100e906132c4565b60405180910390fd5b8060056000611024611727565b73ffffffffffffffffffffffffffffffffffffffff1673ffffffffffffffffffffffffffffffffffffffff16815260200190815260200160002060008473ffffffffffffffffffffffffffffffffffffffff1673ffffffffffffffffffffffffffffffffffffffff16815260200190815260200160002060006101000a81548160ff0219169083151502179055508173ffffffffffffffffffffffffffffffffffffffff166110d1611727565b73ffffffffffffffffffffffffffffffffffffffff167f17307eab39ab6107e8899845ad3d59bd9653f200f220920489ca2b5937696c3183604051611116919061271e565b60405180910390a35050565b61113361112d611727565b836118dc565b611172576040517f08c379a000000000000000000000000000000000000000000000000000000000815260040161116990613036565b60405180910390fd5b61117e84848484611d50565b50505050565b600b6020528060005260406000206000915090508060000180546111a790612ddc565b80601f01602080910402602001604051908101604052809291908181526020018280546111d390612ddc565b80156112205780601f106111f557610100808354040283529160200191611220565b820191906000526020600020905b81548152906001019060200180831161120357829003601f168201915b5050505050908060010154905082565b60096020528060005260406000206000915090505481565b6060611253826117b7565b611292576040517f08c379a000000000000000000000000000000000000000000000000000000000815260040161128990613356565b60405180910390fd5b60006006600084815260200190815260200160002080546112b290612ddc565b80601f01602080910402602001604051908101604052809291908181526020018280546112de90612ddc565b801561132b5780601f106113005761010080835404028352916020019161132b565b820191906000526020600020905b81548152906001019060200180831161130e57829003601f168201915b50505050509050600061133c611dac565b9050600081511415611352578192505050611395565b60008251111561138757808260405160200161136f9291906133b2565b60405160208183030381529060405292505050611395565b61139084611e3e565b925050505b919050565b6000600560008473ffffffffffffffffffffffffffffffffffffffff1673ffffffffffffffffffffffffffffffffffffffff16815260200190815260200160002060008373ffffffffffffffffffffffffffffffffffffffff1673ffffffffffffffffffffffffffffffffffffffff16815260200190815260200160002060009054906101000a900460ff16905092915050565b6060600b600061143c611727565b73ffffffffffffffffffffffffffffffffffffffff1673ffffffffffffffffffffffffffffffffffffffff168152602001908152602001600020600001805461148490612ddc565b80601f01602080910402602001604051908101604052809291908181526020018280546114b090612ddc565b80156114fd5780601f106114d2576101008083540402835291602001916114fd565b820191906000526020600020905b8154815290600101906020018083116114e057829003601f168201915b5050505050905090565b61150f611727565b73ffffffffffffffffffffffffffffffffffffffff1661152d610df4565b73ffffffffffffffffffffffffffffffffffffffff1614611583576040517f08c379a000000000000000000000000000000000000000000000000000000000815260040161157a906130a2565b60405180910390fd5b600073ffffffffffffffffffffffffffffffffffffffff168173ffffffffffffffffffffffffffffffffffffffff1614156115f3576040517f08c379a00000000000000000000000000000000000000000000000000000000081526004016115ea90613448565b60405180910390fd5b6115fc81611c8a565b50565b6116076124a4565b600b6000600a600085815260200190815260200160002060009054906101000a900473ffffffffffffffffffffffffffffffffffffffff1673ffffffffffffffffffffffffffffffffffffffff1673ffffffffffffffffffffffffffffffffffffffff16815260200190815260200160002060405180604001604052908160008201805461169490612ddc565b80601f01602080910402602001604051908101604052809291908181526020018280546116c090612ddc565b801561170d5780601f106116e25761010080835404028352916020019161170d565b820191906000526020600020905b8154815290600101906020018083116116f057829003601f168201915b505050505081526020016001820154815250509050919050565b600033905090565b611749828260405180602001604052806000815250611ee5565b5050565b60007f01ffc9a7000000000000000000000000000000000000000000000000000000007bffffffffffffffffffffffffffffffffffffffffffffffffffffffff1916827bffffffffffffffffffffffffffffffffffffffffffffffffffffffff1916149050919050565b60008073ffffffffffffffffffffffffffffffffffffffff166002600084815260200190815260200160002060009054906101000a900473ffffffffffffffffffffffffffffffffffffffff1673ffffffffffffffffffffffffffffffffffffffff1614159050919050565b816004600083815260200190815260200160002060006101000a81548173ffffffffffffffffffffffffffffffffffffffff021916908373ffffffffffffffffffffffffffffffffffffffff160217905550808273ffffffffffffffffffffffffffffffffffffffff1661189683610bcf565b73ffffffffffffffffffffffffffffffffffffffff167f8c5be1e5ebec7d5bd14f71427d1e84f3dd0314c0f7b2291e5b200ac8c7c3b92560405160405180910390a45050565b60006118e7826117b7565b611926576040517f08c379a000000000000000000000000000000000000000000000000000000000815260040161191d906134da565b60405180910390fd5b600061193183610bcf565b90508073ffffffffffffffffffffffffffffffffffffffff168473ffffffffffffffffffffffffffffffffffffffff1614806119a057508373ffffffffffffffffffffffffffffffffffffffff1661198884610872565b73ffffffffffffffffffffffffffffffffffffffff16145b806119b157506119b0818561139a565b5b91505092915050565b6119c3826117b7565b611a02576040517f08c379a00000000000000000000000000000000000000000000000000000000081526004016119f99061356c565b60405180910390fd5b80600660008481526020019081526020016000209080519060200190611a2992919061241e565b505050565b8273ffffffffffffffffffffffffffffffffffffffff16611a4e82610bcf565b73ffffffffffffffffffffffffffffffffffffffff1614611aa4576040517f08c379a0000000000000000000000000000000000000000000000000000000008152600401611a9b906135fe565b60405180910390fd5b600073ffffffffffffffffffffffffffffffffffffffff168273ffffffffffffffffffffffffffffffffffffffff161415611b14576040517f08c379a0000000000000000000000000000000000000000000000000000000008152600401611b0b90613690565b60405180910390fd5b611b1f838383611f40565b611b2a600082611823565b6001600360008573ffffffffffffffffffffffffffffffffffffffff1673ffffffffffffffffffffffffffffffffffffffff1681526020019081526020016000206000828254611b7a91906136b0565b925050819055506001600360008473ffffffffffffffffffffffffffffffffffffffff1673ffffffffffffffffffffffffffffffffffffffff1681526020019081526020016000206000828254611bd19190612d57565b92505081905550816002600083815260200190815260200160002060006101000a81548173ffffffffffffffffffffffffffffffffffffffff021916908373ffffffffffffffffffffffffffffffffffffffff160217905550808273ffffffffffffffffffffffffffffffffffffffff168473ffffffffffffffffffffffffffffffffffffffff167fddf252ad1be2c89b69c2b068fc378daa952ba7f163c4a11628f55a4df523b3ef60405160405180910390a4505050565b6000600760009054906101000a900473ffffffffffffffffffffffffffffffffffffffff16905081600760006101000a81548173ffffffffffffffffffffffffffffffffffffffff021916908373ffffffffffffffffffffffffffffffffffffffff1602179055508173ffffffffffffffffffffffffffffffffffffffff168173ffffffffffffffffffffffffffffffffffffffff167f8be0079c531659141344cd1fd0a4f28419497f9722a3daafe3b4186f6b6457e060405160405180910390a35050565b611d5b848484611a2e565b611d6784848484611f45565b611da6576040517f08c379a0000000000000000000000000000000000000000000000000000000008152600401611d9d90613756565b60405180910390fd5b50505050565b606060088054611dbb90612ddc565b80601f0160208091040260200160405190810160405280929190818152602001828054611de790612ddc565b8015611e345780601f10611e0957610100808354040283529160200191611e34565b820191906000526020600020905b815481529060010190602001808311611e1757829003601f168201915b5050505050905090565b6060611e49826117b7565b611e88576040517f08c379a0000000000000000000000000000000000000000000000000000000008152600401611e7f906137e8565b60405180910390fd5b6000611e92611dac565b90506000815111611eb25760405180602001604052806000815250611edd565b80611ebc846120dc565b604051602001611ecd9291906133b2565b6040516020818303038152906040525b915050919050565b611eef838361223d565b611efc6000848484611f45565b611f3b576040517f08c379a0000000000000000000000000000000000000000000000000000000008152600401611f3290613756565b60405180910390fd5b505050565b505050565b6000611f668473ffffffffffffffffffffffffffffffffffffffff1661240b565b156120cf578373ffffffffffffffffffffffffffffffffffffffff1663150b7a02611f8f611727565b8786866040518563ffffffff1660e01b8152600401611fb1949392919061385d565b602060405180830381600087803b158015611fcb57600080fd5b505af1925050508015611ffc57506040513d601f19601f82011682018060405250810190611ff991906138be565b60015b61207f573d806000811461202c576040519150601f19603f3d011682016040523d82523d6000602084013e612031565b606091505b50600081511415612077576040517f08c379a000000000000000000000000000000000000000000000000000000000815260040161206e90613756565b60405180910390fd5b805181602001fd5b63150b7a0260e01b7bffffffffffffffffffffffffffffffffffffffffffffffffffffffff1916817bffffffffffffffffffffffffffffffffffffffffffffffffffffffff1916149150506120d4565b600190505b949350505050565b60606000821415612124576040518060400160405280600181526020017f30000000000000000000000000000000000000000000000000000000000000008152509050612238565b600082905060005b6000821461215657808061213f906138eb565b915050600a8261214f9190613963565b915061212c565b60008167ffffffffffffffff8111156121725761217161250a565b5b6040519080825280601f01601f1916602001820160405280156121a45781602001600182028036833780820191505090505b5090505b60008514612231576001826121bd91906136b0565b9150600a856121cc9190613994565b60306121d89190612d57565b60f81b8183815181106121ee576121ed6139c5565b5b60200101907effffffffffffffffffffffffffffffffffffffffffffffffffffffffffffff1916908160001a905350600a8561222a9190613963565b94506121a8565b8093505050505b919050565b600073ffffffffffffffffffffffffffffffffffffffff168273ffffffffffffffffffffffffffffffffffffffff1614156122ad576040517f08c379a00000000000000000000000000000000000000000000000000000000081526004016122a490613a40565b60405180910390fd5b6122b6816117b7565b156122f6576040517f08c379a00000000000000000000000000000000000000000000000000000000081526004016122ed90613aac565b60405180910390fd5b61230260008383611f40565b6001600360008473ffffffffffffffffffffffffffffffffffffffff1673ffffffffffffffffffffffffffffffffffffffff16815260200190815260200160002060008282546123529190612d57565b92505081905550816002600083815260200190815260200160002060006101000a81548173ffffffffffffffffffffffffffffffffffffffff021916908373ffffffffffffffffffffffffffffffffffffffff160217905550808273ffffffffffffffffffffffffffffffffffffffff16600073ffffffffffffffffffffffffffffffffffffffff167fddf252ad1be2c89b69c2b068fc378daa952ba7f163c4a11628f55a4df523b3ef60405160405180910390a45050565b600080823b905060008111915050919050565b82805461242a90612ddc565b90600052602060002090601f01602090048101928261244c5760008555612493565b82601f1061246557805160ff1916838001178555612493565b82800160010185558215612493579182015b82811115612492578251825591602001919060010190612477565b5b5090506124a091906124be565b5090565b604051806040016040528060608152602001600081525090565b5b808211156124d75760008160009055506001016124bf565b5090565b6000604051905090565b600080fd5b600080fd5b600080fd5b600080fd5b6000601f19601f8301169050919050565b7f4e487b7100000000000000000000000000000000000000000000000000000000600052604160045260246000fd5b612542826124f9565b810181811067ffffffffffffffff821117156125615761256061250a565b5b80604052505050565b60006125746124db565b90506125808282612539565b919050565b600067ffffffffffffffff8211156125a05761259f61250a565b5b6125a9826124f9565b9050602081019050919050565b82818337600083830152505050565b60006125d86125d384612585565b61256a565b9050828152602081018484840111156125f4576125f36124f4565b5b6125ff8482856125b6565b509392505050565b600082601f83011261261c5761261b6124ef565b5b813561262c8482602086016125c5565b91505092915050565b60006020828403121561264b5761264a6124e5565b5b600082013567ffffffffffffffff811115612669576126686124ea565b5b61267584828501612607565b91505092915050565b60007fffffffff0000000000000000000000000000000000000000000000000000000082169050919050565b6126b38161267e565b81146126be57600080fd5b50565b6000813590506126d0816126aa565b92915050565b6000602082840312156126ec576126eb6124e5565b5b60006126fa848285016126c1565b91505092915050565b60008115159050919050565b61271881612703565b82525050565b6000602082019050612733600083018461270f565b92915050565b600081519050919050565b600082825260208201905092915050565b60005b83811015612773578082015181840152602081019050612758565b83811115612782576000848401525b50505050565b600061279382612739565b61279d8185612744565b93506127ad818560208601612755565b6127b6816124f9565b840191505092915050565b600060208201905081810360008301526127db8184612788565b905092915050565b6000819050919050565b6127f6816127e3565b811461280157600080fd5b50565b600081359050612813816127ed565b92915050565b60006020828403121561282f5761282e6124e5565b5b600061283d84828501612804565b91505092915050565b600073ffffffffffffffffffffffffffffffffffffffff82169050919050565b600061287182612846565b9050919050565b61288181612866565b82525050565b600060208201905061289c6000830184612878565b92915050565b6128ab81612866565b81146128b657600080fd5b50565b6000813590506128c8816128a2565b92915050565b600080604083850312156128e5576128e46124e5565b5b60006128f3858286016128b9565b925050602061290485828601612804565b9150509250929050565b60008060408385031215612925576129246124e5565b5b600061293385828601612804565b925050602083013567ffffffffffffffff811115612954576129536124ea565b5b61296085828601612607565b9150509250929050565b600080600060608486031215612983576129826124e5565b5b6000612991868287016128b9565b93505060206129a2868287016128b9565b92505060406129b386828701612804565b9150509250925092565b6000602082840312156129d3576129d26124e5565b5b60006129e1848285016128b9565b91505092915050565b6129f3816127e3565b82525050565b6000602082019050612a0e60008301846129ea565b92915050565b60008060408385031215612a2b57612a2a6124e5565b5b6000612a39858286016128b9565b925050602083013567ffffffffffffffff811115612a5a57612a596124ea565b5b612a6685828601612607565b9150509250929050565b612a7981612703565b8114612a8457600080fd5b50565b600081359050612a9681612a70565b92915050565b60008060408385031215612ab357612ab26124e5565b5b6000612ac1858286016128b9565b9250506020612ad285828601612a87565b9150509250929050565b600067ffffffffffffffff821115612af757612af661250a565b5b612b00826124f9565b9050602081019050919050565b6000612b20612b1b84612adc565b61256a565b905082815260208101848484011115612b3c57612b3b6124f4565b5b612b478482856125b6565b509392505050565b600082601f830112612b6457612b636124ef565b5b8135612b74848260208601612b0d565b91505092915050565b60008060008060808587031215612b9757612b966124e5565b5b6000612ba5878288016128b9565b9450506020612bb6878288016128b9565b9350506040612bc787828801612804565b925050606085013567ffffffffffffffff811115612be857612be76124ea565b5b612bf487828801612b4f565b91505092959194509250565b60006040820190508181036000830152612c1a8185612788565b9050612c2960208301846129ea565b9392505050565b60008060408385031215612c4757612c466124e5565b5b6000612c55858286016128b9565b9250506020612c66858286016128b9565b9150509250929050565b600082825260208201905092915050565b6000612c8c82612739565b612c968185612c70565b9350612ca6818560208601612755565b612caf816124f9565b840191505092915050565b612cc3816127e3565b82525050565b60006040830160008301518482036000860152612ce68282612c81565b9150506020830151612cfb6020860182612cba565b508091505092915050565b60006020820190508181036000830152612d208184612cc9565b905092915050565b7f4e487b7100000000000000000000000000000000000000000000000000000000600052601160045260246000fd5b6000612d62826127e3565b9150612d6d836127e3565b9250827fffffffffffffffffffffffffffffffffffffffffffffffffffffffffffffffff03821115612da257612da1612d28565b5b828201905092915050565b7f4e487b7100000000000000000000000000000000000000000000000000000000600052602260045260246000fd5b60006002820490506001821680612df457607f821691505b60208210811415612e0857612e07612dad565b5b50919050565b7f4552433732313a20617070726f76656420717565727920666f72206e6f6e657860008201527f697374656e7420746f6b656e0000000000000000000000000000000000000000602082015250565b6000612e6a602c83612744565b9150612e7582612e0e565b604082019050919050565b60006020820190508181036000830152612e9981612e5d565b9050919050565b7f4552433732313a20617070726f76616c20746f2063757272656e74206f776e6560008201527f7200000000000000000000000000000000000000000000000000000000000000602082015250565b6000612efc602183612744565b9150612f0782612ea0565b604082019050919050565b60006020820190508181036000830152612f2b81612eef565b9050919050565b7f4552433732313a20617070726f76652063616c6c6572206973206e6f74206f7760008201527f6e6572206e6f7220617070726f76656420666f7220616c6c0000000000000000602082015250565b6000612f8e603883612744565b9150612f9982612f32565b604082019050919050565b60006020820190508181036000830152612fbd81612f81565b9050919050565b7f4552433732313a207472616e736665722063616c6c6572206973206e6f74206f60008201527f776e6572206e6f7220617070726f766564000000000000000000000000000000602082015250565b6000613020603183612744565b915061302b82612fc4565b604082019050919050565b6000602082019050818103600083015261304f81613013565b9050919050565b7f4f776e61626c653a2063616c6c6572206973206e6f7420746865206f776e6572600082015250565b600061308c602083612744565b915061309782613056565b602082019050919050565b600060208201905081810360008301526130bb8161307f565b9050919050565b7f4552433732313a206f776e657220717565727920666f72206e6f6e657869737460008201527f656e7420746f6b656e0000000000000000000000000000000000000000000000602082015250565b600061311e602983612744565b9150613129826130c2565b604082019050919050565b6000602082019050818103600083015261314d81613111565b9050919050565b7f4552433732313a2062616c616e636520717565727920666f7220746865207a6560008201527f726f206164647265737300000000000000000000000000000000000000000000602082015250565b60006131b0602a83612744565b91506131bb82613154565b604082019050919050565b600060208201905081810360008301526131df816131a3565b9050919050565b7f4552433732313a2075706461746553756273747261746d50726f66696c65206360008201527f616c6c6572206973206e6f74206f776e6572206e6f7220617070726f76656400602082015250565b6000613242603f83612744565b915061324d826131e6565b604082019050919050565b6000602082019050818103600083015261327181613235565b9050919050565b7f4552433732313a20617070726f766520746f2063616c6c657200000000000000600082015250565b60006132ae601983612744565b91506132b982613278565b602082019050919050565b600060208201905081810360008301526132dd816132a1565b9050919050565b7f45524337323155524953746f726167653a2055524920717565727920666f722060008201527f6e6f6e6578697374656e7420746f6b656e000000000000000000000000000000602082015250565b6000613340603183612744565b915061334b826132e4565b604082019050919050565b6000602082019050818103600083015261336f81613333565b9050919050565b600081905092915050565b600061338c82612739565b6133968185613376565b93506133a6818560208601612755565b80840191505092915050565b60006133be8285613381565b91506133ca8284613381565b91508190509392505050565b7f4f776e61626c653a206e6577206f776e657220697320746865207a65726f206160008201527f6464726573730000000000000000000000000000000000000000000000000000602082015250565b6000613432602683612744565b915061343d826133d6565b604082019050919050565b6000602082019050818103600083015261346181613425565b9050919050565b7f4552433732313a206f70657261746f7220717565727920666f72206e6f6e657860008201527f697374656e7420746f6b656e0000000000000000000000000000000000000000602082015250565b60006134c4602c83612744565b91506134cf82613468565b604082019050919050565b600060208201905081810360008301526134f3816134b7565b9050919050565b7f45524337323155524953746f726167653a2055524920736574206f66206e6f6e60008201527f6578697374656e7420746f6b656e000000000000000000000000000000000000602082015250565b6000613556602e83612744565b9150613561826134fa565b604082019050919050565b6000602082019050818103600083015261358581613549565b9050919050565b7f4552433732313a207472616e73666572206f6620746f6b656e2074686174206960008201527f73206e6f74206f776e0000000000000000000000000000000000000000000000602082015250565b60006135e8602983612744565b91506135f38261358c565b604082019050919050565b60006020820190508181036000830152613617816135db565b9050919050565b7f4552433732313a207472616e7366657220746f20746865207a65726f2061646460008201527f7265737300000000000000000000000000000000000000000000000000000000602082015250565b600061367a602483612744565b91506136858261361e565b604082019050919050565b600060208201905081810360008301526136a98161366d565b9050919050565b60006136bb826127e3565b91506136c6836127e3565b9250828210156136d9576136d8612d28565b5b828203905092915050565b7f4552433732313a207472616e7366657220746f206e6f6e20455243373231526560008201527f63656976657220696d706c656d656e7465720000000000000000000000000000602082015250565b6000613740603283612744565b915061374b826136e4565b604082019050919050565b6000602082019050818103600083015261376f81613733565b9050919050565b7f4552433732314d657461646174613a2055524920717565727920666f72206e6f60008201527f6e6578697374656e7420746f6b656e0000000000000000000000000000000000602082015250565b60006137d2602f83612744565b91506137dd82613776565b604082019050919050565b60006020820190508181036000830152613801816137c5565b9050919050565b600081519050919050565b600082825260208201905092915050565b600061382f82613808565b6138398185613813565b9350613849818560208601612755565b613852816124f9565b840191505092915050565b60006080820190506138726000830187612878565b61387f6020830186612878565b61388c60408301856129ea565b818103606083015261389e8184613824565b905095945050505050565b6000815190506138b8816126aa565b92915050565b6000602082840312156138d4576138d36124e5565b5b60006138e2848285016138a9565b91505092915050565b60006138f6826127e3565b91507fffffffffffffffffffffffffffffffffffffffffffffffffffffffffffffffff82141561392957613928612d28565b5b600182019050919050565b7f4e487b7100000000000000000000000000000000000000000000000000000000600052601260045260246000fd5b600061396e826127e3565b9150613979836127e3565b92508261398957613988613934565b5b828204905092915050565b600061399f826127e3565b91506139aa836127e3565b9250826139ba576139b9613934565b5b828206905092915050565b7f4e487b7100000000000000000000000000000000000000000000000000000000600052603260045260246000fd5b7f4552433732313a206d696e7420746f20746865207a65726f2061646472657373600082015250565b6000613a2a602083612744565b9150613a35826139f4565b602082019050919050565b60006020820190508181036000830152613a5981613a1d565b9050919050565b7f4552433732313a20746f6b656e20616c7265616479206d696e74656400000000600082015250565b6000613a96601c83612744565b9150613aa182613a60565b602082019050919050565b60006020820190508181036000830152613ac581613a89565b905091905056fea2646970667358221220a88347cfb85bb0ff5d9b84b0b3d006e5ce80ce8d4764e47837ae079ef4e0bbdc64736f6c63430008090033",
  "immutableReferences": {},
  "source": "// SPDX-License-Identifier: MIT\npragma solidity ^0.8.0;\n\nimport \"@openzeppelin/contracts/access/Ownable.sol\"; // https://docs.openzeppelin.com/contracts/2.x/access-control\nimport \"@openzeppelin/contracts/token/ERC721/extensions/ERC721URIStorage.sol\"; // https://docs.openzeppelin.com/contracts/4.x/api/token/erc721#ERC721URIStorage\ncontract SubstratmNFT is ERC721URIStorage, Ownable {\n    struct Profile {\n        string twitterHandle;\n        uint256 tokenId;\n    }\n    // Base URI\n    string private _baseURIextended;\n\n    mapping(address => uint256) public walletToProfileId;\n    mapping(uint256 => address) public profileIdToWallet;\n    mapping(address => Profile) public profiles;\n    \n    \n    //address[] public profiles;\n    uint256 internal fee;\n    uint256 internal lastTokenId;\n    \n     constructor() ERC721(\"SubstratmNFT\", \"SBSTR\") { \n        lastTokenId = 0;\n    }\n    \n    function getProfileMetadata(uint256 profileId)\n    public\n    view\n    returns (Profile  memory )\n    {\n        // TODO return all profile Metadata\n        return     profiles[profileIdToWallet[profileId]];\n    }\n\n    function updateSubstratmProfile(\n        address userAddress,\n        string memory twitterHandle\n    ) public {\n        require(_isApprovedOrOwner(_msgSender(), walletToProfileId[userAddress]), \"ERC721: updateSubstratmProfile caller is not owner nor approved\"        );\n        profiles[_msgSender()].twitterHandle = twitterHandle;\n    }\n    \n    function setBaseURI(string memory baseURI_) external onlyOwner() {\n        _baseURIextended = baseURI_;\n    }\n\n    function _baseURI() internal view virtual override returns (string memory) {\n        return _baseURIextended;\n    }\n\n    function requestToMintNewSubstratmProfileNFT(\n        string memory twitterHandle\n    ) public {\n        // TODO validate twitter handle\n        uint256 tokenId = 0;\n        if (!nftExistsForAccount(_msgSender())){\n            lastTokenId = lastTokenId + 1;\n            tokenId = lastTokenId;\n            \n            walletToProfileId[_msgSender()] = tokenId; // Lilly, I thought this made more sense because we can look up stuff for a given address, which we can read from metamask in the Front End.\n            profileIdToWallet[tokenId] = _msgSender();\n            _safeMint(_msgSender(), tokenId);\n         }  \n         else\n         {\n            tokenId = profiles[_msgSender()].tokenId;\n         }     \n\n        // update if it was existing. \n        profiles[_msgSender()] = Profile({\n                twitterHandle: twitterHandle,\n                tokenId: tokenId\n            });\n    }\n    \n    function readTwitterHandleForGivenAddress () public view returns (string memory) \n    {\n        return profiles[_msgSender()].twitterHandle; // not sure what happens if we haven't minted yet and the mapping entry is 0. Are there null reference exceptions?\n    }\n\n    function nftExistsForAccount (address userAddress) public view returns (bool) \n    {\n        return walletToProfileId[userAddress] != 0;\n    }\n\n\n\n    function setTokenURI(uint256 profileId, string memory _profileURI) public {\n        require(\n            _isApprovedOrOwner(_msgSender(), profileId), \"ERC721: transfer caller is not owner nor approved\"\n        );\n        _setTokenURI(profileId, _profileURI);\n    }\n\n\n}",
  "sourcePath": "C:\\code\\substratm\\truffle\\contracts\\SubstratmNFT.sol",
  "compiler": {
    "name": "solc",
    "version": "0.8.9+commit.e5eed63a.Emscripten.clang"
  },
  "schemaVersion": "3.4.3",
  "updatedAt": "2021-11-28T22:37:23.562Z",
  "devdoc": {
    "kind": "dev",
    "methods": {
      "approve(address,uint256)": {
        "details": "See {IERC721-approve}."
      },
      "balanceOf(address)": {
        "details": "See {IERC721-balanceOf}."
      },
      "getApproved(uint256)": {
        "details": "See {IERC721-getApproved}."
      },
      "isApprovedForAll(address,address)": {
        "details": "See {IERC721-isApprovedForAll}."
      },
      "name()": {
        "details": "See {IERC721Metadata-name}."
      },
      "owner()": {
        "details": "Returns the address of the current owner."
      },
      "ownerOf(uint256)": {
        "details": "See {IERC721-ownerOf}."
      },
      "renounceOwnership()": {
        "details": "Leaves the contract without owner. It will not be possible to call `onlyOwner` functions anymore. Can only be called by the current owner. NOTE: Renouncing ownership will leave the contract without an owner, thereby removing any functionality that is only available to the owner."
      },
      "safeTransferFrom(address,address,uint256)": {
        "details": "See {IERC721-safeTransferFrom}."
      },
      "safeTransferFrom(address,address,uint256,bytes)": {
        "details": "See {IERC721-safeTransferFrom}."
      },
      "setApprovalForAll(address,bool)": {
        "details": "See {IERC721-setApprovalForAll}."
      },
      "supportsInterface(bytes4)": {
        "details": "See {IERC165-supportsInterface}."
      },
      "symbol()": {
        "details": "See {IERC721Metadata-symbol}."
      },
      "tokenURI(uint256)": {
        "details": "See {IERC721Metadata-tokenURI}."
      },
      "transferFrom(address,address,uint256)": {
        "details": "See {IERC721-transferFrom}."
      },
      "transferOwnership(address)": {
        "details": "Transfers ownership of the contract to a new account (`newOwner`). Can only be called by the current owner."
      }
    },
    "version": 1
  },
  "userdoc": {
    "kind": "user",
    "methods": {},
    "version": 1
  }
}